{
	"contracts/SimpleBlockchain.sol": {
		"SimpleBlockchain": {
			"abi": [
				{
					"inputs": [],
					"stateMutability": "nonpayable",
					"type": "constructor"
				},
				{
					"anonymous": false,
					"inputs": [
						{
							"indexed": false,
							"internalType": "uint256",
							"name": "index",
							"type": "uint256"
						},
						{
							"indexed": false,
							"internalType": "bytes32",
							"name": "hash",
							"type": "bytes32"
						}
					],
					"name": "BlockAdded",
					"type": "event"
				},
				{
					"anonymous": false,
					"inputs": [
						{
							"indexed": false,
							"internalType": "address",
							"name": "sender",
							"type": "address"
						},
						{
							"indexed": false,
							"internalType": "address",
							"name": "receiver",
							"type": "address"
						},
						{
							"indexed": false,
							"internalType": "uint256",
							"name": "amount",
							"type": "uint256"
						}
					],
					"name": "TransactionAdded",
					"type": "event"
				},
				{
					"inputs": [
						{
							"internalType": "address",
							"name": "receiver",
							"type": "address"
						},
						{
							"internalType": "uint256",
							"name": "amount",
							"type": "uint256"
						}
					],
					"name": "addTransaction",
					"outputs": [],
					"stateMutability": "nonpayable",
					"type": "function"
				},
				{
					"inputs": [
						{
							"internalType": "uint256",
							"name": "",
							"type": "uint256"
						}
					],
					"name": "blocks",
					"outputs": [
						{
							"internalType": "uint256",
							"name": "index",
							"type": "uint256"
						},
						{
							"internalType": "uint256",
							"name": "timestamp",
							"type": "uint256"
						},
						{
							"internalType": "bytes32",
							"name": "prevHash",
							"type": "bytes32"
						},
						{
							"internalType": "bytes32",
							"name": "hash",
							"type": "bytes32"
						}
					],
					"stateMutability": "view",
					"type": "function"
				},
				{
					"inputs": [],
					"name": "chainLength",
					"outputs": [
						{
							"internalType": "uint256",
							"name": "",
							"type": "uint256"
						}
					],
					"stateMutability": "view",
					"type": "function"
				},
				{
					"inputs": [
						{
							"internalType": "uint256",
							"name": "index",
							"type": "uint256"
						}
					],
					"name": "getBlock",
					"outputs": [
						{
							"internalType": "uint256",
							"name": "",
							"type": "uint256"
						},
						{
							"internalType": "uint256",
							"name": "",
							"type": "uint256"
						},
						{
							"internalType": "bytes32",
							"name": "",
							"type": "bytes32"
						},
						{
							"internalType": "bytes32",
							"name": "",
							"type": "bytes32"
						},
						{
							"internalType": "uint256",
							"name": "",
							"type": "uint256"
						}
					],
					"stateMutability": "view",
					"type": "function"
				},
				{
					"inputs": [
						{
							"internalType": "uint256",
							"name": "blockIndex",
							"type": "uint256"
						},
						{
							"internalType": "uint256",
							"name": "txIndex",
							"type": "uint256"
						}
					],
					"name": "getTransaction",
					"outputs": [
						{
							"internalType": "address",
							"name": "",
							"type": "address"
						},
						{
							"internalType": "address",
							"name": "",
							"type": "address"
						},
						{
							"internalType": "uint256",
							"name": "",
							"type": "uint256"
						},
						{
							"internalType": "uint256",
							"name": "",
							"type": "uint256"
						}
					],
					"stateMutability": "view",
					"type": "function"
				},
				{
					"inputs": [],
					"name": "latestIndex",
					"outputs": [
						{
							"internalType": "uint256",
							"name": "",
							"type": "uint256"
						}
					],
					"stateMutability": "view",
					"type": "function"
				},
				{
					"inputs": [],
					"name": "mineBlock",
					"outputs": [
						{
							"internalType": "uint256",
							"name": "",
							"type": "uint256"
						}
					],
					"stateMutability": "nonpayable",
					"type": "function"
				},
				{
					"inputs": [
						{
							"internalType": "uint256",
							"name": "",
							"type": "uint256"
						}
					],
					"name": "pendingTx",
					"outputs": [
						{
							"internalType": "address",
							"name": "sender",
							"type": "address"
						},
						{
							"internalType": "address",
							"name": "receiver",
							"type": "address"
						},
						{
							"internalType": "uint256",
							"name": "amount",
							"type": "uint256"
						},
						{
							"internalType": "uint256",
							"name": "timestamp",
							"type": "uint256"
						}
					],
					"stateMutability": "view",
					"type": "function"
				}
			],
			"devdoc": {
				"kind": "dev",
				"methods": {},
				"version": 1
			},
			"evm": {
				"assembly": "    /* \"contracts/SimpleBlockchain.sol\":60:2759  contract SimpleBlockchain {... */\n  mstore(0x40, 0x80)\n    /* \"contracts/SimpleBlockchain.sol\":668:712  constructor() {... */\n  callvalue\n  dup1\n  iszero\n  tag_1\n  jumpi\n  revert(0x00, 0x00)\ntag_1:\n  pop\n    /* \"contracts/SimpleBlockchain.sol\":693:704  _addBlock() */\n  tag_4\n    /* \"contracts/SimpleBlockchain.sol\":693:702  _addBlock */\n  shl(0x20, tag_5)\n    /* \"contracts/SimpleBlockchain.sol\":693:704  _addBlock() */\n  0x20\n  shr\n  jump\t// in\ntag_4:\n  pop\n    /* \"contracts/SimpleBlockchain.sol\":60:2759  contract SimpleBlockchain {... */\n  jump(tag_6)\n    /* \"contracts/SimpleBlockchain.sol\":720:1462  function _addBlock() internal returns (uint256) {... */\ntag_5:\n    /* \"contracts/SimpleBlockchain.sol\":759:766  uint256 */\n  0x00\n    /* \"contracts/SimpleBlockchain.sol\":779:792  uint256 index */\n  0x00\n    /* \"contracts/SimpleBlockchain.sol\":809:810  1 */\n  0x01\n    /* \"contracts/SimpleBlockchain.sol\":795:806  latestIndex */\n  dup1\n  sload\n    /* \"contracts/SimpleBlockchain.sol\":795:810  latestIndex + 1 */\n  tag_8\n  swap2\n  swap1\n  tag_9\n  jump\t// in\ntag_8:\n    /* \"contracts/SimpleBlockchain.sol\":779:810  uint256 index = latestIndex + 1 */\n  swap1\n  pop\n    /* \"contracts/SimpleBlockchain.sol\":821:831  uint256 ts */\n  0x00\n    /* \"contracts/SimpleBlockchain.sol\":834:849  block.timestamp */\n  timestamp\n    /* \"contracts/SimpleBlockchain.sol\":821:849  uint256 ts = block.timestamp */\n  swap1\n  pop\n    /* \"contracts/SimpleBlockchain.sol\":862:878  bytes32 prevHash */\n  0x00\n    /* \"contracts/SimpleBlockchain.sol\":881:887  blocks */\n  0x00\n    /* \"contracts/SimpleBlockchain.sol\":881:900  blocks[latestIndex] */\n  0x00\n    /* \"contracts/SimpleBlockchain.sol\":888:899  latestIndex */\n  sload(0x01)\n    /* \"contracts/SimpleBlockchain.sol\":881:900  blocks[latestIndex] */\n  dup2\n  mstore\n  0x20\n  add\n  swap1\n  dup2\n  mstore\n  0x20\n  add\n  0x00\n  keccak256\n    /* \"contracts/SimpleBlockchain.sol\":881:905  blocks[latestIndex].hash */\n  0x04\n  add\n  sload\n    /* \"contracts/SimpleBlockchain.sol\":862:905  bytes32 prevHash = blocks[latestIndex].hash */\n  swap1\n  pop\n    /* \"contracts/SimpleBlockchain.sol\":918:927  bytes32 h */\n  0x00\n    /* \"contracts/SimpleBlockchain.sol\":971:976  index */\n  dup4\n    /* \"contracts/SimpleBlockchain.sol\":978:980  ts */\n  dup4\n    /* \"contracts/SimpleBlockchain.sol\":982:990  prevHash */\n  dup4\n    /* \"contracts/SimpleBlockchain.sol\":992:1001  pendingTx */\n  0x02\n    /* \"contracts/SimpleBlockchain.sol\":992:1008  pendingTx.length */\n  dup1\n  sload\n  swap1\n  pop\n    /* \"contracts/SimpleBlockchain.sol\":954:1009  abi.encodePacked(index, ts, prevHash, pendingTx.length) */\n  add(0x20, mload(0x40))\n  tag_10\n  swap5\n  swap4\n  swap3\n  swap2\n  swap1\n  tag_11\n  jump\t// in\ntag_10:\n  mload(0x40)\n  0x20\n  dup2\n  dup4\n  sub\n  sub\n  dup2\n  mstore\n  swap1\n  0x40\n  mstore\n    /* \"contracts/SimpleBlockchain.sol\":930:1020  keccak256(... */\n  dup1\n  mload\n  swap1\n  0x20\n  add\n  keccak256\n    /* \"contracts/SimpleBlockchain.sol\":918:1020  bytes32 h = keccak256(... */\n  swap1\n  pop\n    /* \"contracts/SimpleBlockchain.sol\":1033:1061  BlockStruct storage newBlock */\n  0x00\n    /* \"contracts/SimpleBlockchain.sol\":1064:1070  blocks */\n  0x00\n    /* \"contracts/SimpleBlockchain.sol\":1064:1077  blocks[index] */\n  0x00\n    /* \"contracts/SimpleBlockchain.sol\":1071:1076  index */\n  dup7\n    /* \"contracts/SimpleBlockchain.sol\":1064:1077  blocks[index] */\n  dup2\n  mstore\n  0x20\n  add\n  swap1\n  dup2\n  mstore\n  0x20\n  add\n  0x00\n  keccak256\n    /* \"contracts/SimpleBlockchain.sol\":1033:1077  BlockStruct storage newBlock = blocks[index] */\n  swap1\n  pop\n    /* \"contracts/SimpleBlockchain.sol\":1105:1110  index */\n  dup5\n    /* \"contracts/SimpleBlockchain.sol\":1088:1096  newBlock */\n  dup2\n    /* \"contracts/SimpleBlockchain.sol\":1088:1102  newBlock.index */\n  0x00\n  add\n    /* \"contracts/SimpleBlockchain.sol\":1088:1110  newBlock.index = index */\n  dup2\n  swap1\n  sstore\n  pop\n    /* \"contracts/SimpleBlockchain.sol\":1142:1144  ts */\n  dup4\n    /* \"contracts/SimpleBlockchain.sol\":1121:1129  newBlock */\n  dup2\n    /* \"contracts/SimpleBlockchain.sol\":1121:1139  newBlock.timestamp */\n  0x01\n  add\n    /* \"contracts/SimpleBlockchain.sol\":1121:1144  newBlock.timestamp = ts */\n  dup2\n  swap1\n  sstore\n  pop\n    /* \"contracts/SimpleBlockchain.sol\":1175:1183  prevHash */\n  dup3\n    /* \"contracts/SimpleBlockchain.sol\":1155:1163  newBlock */\n  dup2\n    /* \"contracts/SimpleBlockchain.sol\":1155:1172  newBlock.prevHash */\n  0x03\n  add\n    /* \"contracts/SimpleBlockchain.sol\":1155:1183  newBlock.prevHash = prevHash */\n  dup2\n  swap1\n  sstore\n  pop\n    /* \"contracts/SimpleBlockchain.sol\":1210:1211  h */\n  dup2\n    /* \"contracts/SimpleBlockchain.sol\":1194:1202  newBlock */\n  dup2\n    /* \"contracts/SimpleBlockchain.sol\":1194:1207  newBlock.hash */\n  0x04\n  add\n    /* \"contracts/SimpleBlockchain.sol\":1194:1211  newBlock.hash = h */\n  dup2\n  swap1\n  sstore\n  pop\n    /* \"contracts/SimpleBlockchain.sol\":1229:1235  uint i */\n  0x00\n    /* \"contracts/SimpleBlockchain.sol\":1238:1239  0 */\n  0x00\n    /* \"contracts/SimpleBlockchain.sol\":1229:1239  uint i = 0 */\n  swap1\n  pop\n    /* \"contracts/SimpleBlockchain.sol\":1224:1335  for (uint i = 0; i < pendingTx.length; i++) {... */\ntag_12:\n    /* \"contracts/SimpleBlockchain.sol\":1245:1254  pendingTx */\n  0x02\n    /* \"contracts/SimpleBlockchain.sol\":1245:1261  pendingTx.length */\n  dup1\n  sload\n  swap1\n  pop\n    /* \"contracts/SimpleBlockchain.sol\":1241:1242  i */\n  dup2\n    /* \"contracts/SimpleBlockchain.sol\":1241:1261  i < pendingTx.length */\n  lt\n    /* \"contracts/SimpleBlockchain.sol\":1224:1335  for (uint i = 0; i < pendingTx.length; i++) {... */\n  iszero\n  tag_13\n  jumpi\n    /* \"contracts/SimpleBlockchain.sol\":1283:1291  newBlock */\n  dup2\n    /* \"contracts/SimpleBlockchain.sol\":1283:1304  newBlock.transactions */\n  0x02\n  add\n    /* \"contracts/SimpleBlockchain.sol\":1310:1319  pendingTx */\n  0x02\n    /* \"contracts/SimpleBlockchain.sol\":1320:1321  i */\n  dup3\n    /* \"contracts/SimpleBlockchain.sol\":1310:1322  pendingTx[i] */\n  dup2\n  sload\n  dup2\n  lt\n  tag_15\n  jumpi\n  tag_16\n  tag_17\n  jump\t// in\ntag_16:\ntag_15:\n  swap1\n  0x00\n  mstore\n  keccak256(0x00, 0x20)\n  swap1\n  0x04\n  mul\n  add\n    /* \"contracts/SimpleBlockchain.sol\":1283:1323  newBlock.transactions.push(pendingTx[i]) */\n  swap1\n  dup1\n  0x01\n  dup2\n  sload\n  add\n  dup1\n  dup3\n  sstore\n  dup1\n  swap2\n  pop\n  pop\n  0x01\n  swap1\n  sub\n  swap1\n  0x00\n  mstore\n  keccak256(0x00, 0x20)\n  swap1\n  0x04\n  mul\n  add\n  0x00\n  swap1\n  swap2\n  swap1\n  swap2\n  swap1\n  swap2\n  pop\n  0x00\n  dup3\n  add\n  0x00\n  swap1\n  sload\n  swap1\n  0x0100\n  exp\n  swap1\n  div\n  0xffffffffffffffffffffffffffffffffffffffff\n  and\n  dup2\n  0x00\n  add\n  exp(0x0100, 0x00)\n  dup2\n  sload\n  dup2\n  0xffffffffffffffffffffffffffffffffffffffff\n  mul\n  not\n  and\n  swap1\n  dup4\n  0xffffffffffffffffffffffffffffffffffffffff\n  and\n  mul\n  or\n  swap1\n  sstore\n  pop\n  0x01\n  dup3\n  add\n  0x00\n  swap1\n  sload\n  swap1\n  0x0100\n  exp\n  swap1\n  div\n  0xffffffffffffffffffffffffffffffffffffffff\n  and\n  dup2\n  0x01\n  add\n  exp(0x0100, 0x00)\n  dup2\n  sload\n  dup2\n  0xffffffffffffffffffffffffffffffffffffffff\n  mul\n  not\n  and\n  swap1\n  dup4\n  0xffffffffffffffffffffffffffffffffffffffff\n  and\n  mul\n  or\n  swap1\n  sstore\n  pop\n  0x02\n  dup3\n  add\n  sload\n  dup2\n  0x02\n  add\n  sstore\n  0x03\n  dup3\n  add\n  sload\n  dup2\n  0x03\n  add\n  sstore\n  pop\n  pop\n    /* \"contracts/SimpleBlockchain.sol\":1263:1266  i++ */\n  dup1\n  dup1\n  0x01\n  add\n  swap2\n  pop\n  pop\n    /* \"contracts/SimpleBlockchain.sol\":1224:1335  for (uint i = 0; i < pendingTx.length; i++) {... */\n  jump(tag_12)\ntag_13:\n  pop\n    /* \"contracts/SimpleBlockchain.sol\":1354:1363  pendingTx */\n  0x02\n  0x00\n    /* \"contracts/SimpleBlockchain.sol\":1347:1363  delete pendingTx */\n  tag_20\n  swap2\n  swap1\n  tag_21\n  jump\t// in\ntag_20:\n    /* \"contracts/SimpleBlockchain.sol\":1388:1393  index */\n  dup5\n    /* \"contracts/SimpleBlockchain.sol\":1374:1385  latestIndex */\n  0x01\n    /* \"contracts/SimpleBlockchain.sol\":1374:1393  latestIndex = index */\n  dup2\n  swap1\n  sstore\n  pop\n    /* \"contracts/SimpleBlockchain.sol\":1411:1431  BlockAdded(index, h) */\n  0x050523c6e97461ceaccc44540ab96e0c97be70813576164de6985b781dbbac19\n    /* \"contracts/SimpleBlockchain.sol\":1422:1427  index */\n  dup6\n    /* \"contracts/SimpleBlockchain.sol\":1429:1430  h */\n  dup4\n    /* \"contracts/SimpleBlockchain.sol\":1411:1431  BlockAdded(index, h) */\n  mload(0x40)\n  tag_22\n  swap3\n  swap2\n  swap1\n  tag_23\n  jump\t// in\ntag_22:\n  mload(0x40)\n  dup1\n  swap2\n  sub\n  swap1\n  log1\n    /* \"contracts/SimpleBlockchain.sol\":1449:1454  index */\n  dup5\n    /* \"contracts/SimpleBlockchain.sol\":1442:1454  return index */\n  swap6\n  pop\n  pop\n  pop\n  pop\n  pop\n  pop\n    /* \"contracts/SimpleBlockchain.sol\":720:1462  function _addBlock() internal returns (uint256) {... */\n  swap1\n  jump\t// out\n    /* \"contracts/SimpleBlockchain.sol\":60:2759  contract SimpleBlockchain {... */\ntag_21:\n  pop\n  dup1\n  sload\n  0x00\n  dup3\n  sstore\n  0x04\n  mul\n  swap1\n  0x00\n  mstore\n  keccak256(0x00, 0x20)\n  swap1\n  dup2\n  add\n  swap1\n  tag_25\n  swap2\n  swap1\n  tag_26\n  jump\t// in\ntag_25:\n  pop\n  jump\t// out\ntag_26:\ntag_27:\n  dup1\n  dup3\n  gt\n  iszero\n  tag_28\n  jumpi\n  0x00\n  0x00\n  dup3\n  add\n  exp(0x0100, 0x00)\n  dup2\n  sload\n  swap1\n  0xffffffffffffffffffffffffffffffffffffffff\n  mul\n  not\n  and\n  swap1\n  sstore\n  0x01\n  dup3\n  add\n  exp(0x0100, 0x00)\n  dup2\n  sload\n  swap1\n  0xffffffffffffffffffffffffffffffffffffffff\n  mul\n  not\n  and\n  swap1\n  sstore\n  0x02\n  dup3\n  add\n  0x00\n  swap1\n  sstore\n  0x03\n  dup3\n  add\n  0x00\n  swap1\n  sstore\n  pop\n  0x04\n  add\n  jump(tag_27)\ntag_28:\n  pop\n  swap1\n  jump\t// out\n    /* \"#utility.yul\":7:84   */\ntag_29:\n    /* \"#utility.yul\":44:51   */\n  0x00\n    /* \"#utility.yul\":73:78   */\n  dup2\n    /* \"#utility.yul\":62:78   */\n  swap1\n  pop\n    /* \"#utility.yul\":7:84   */\n  swap2\n  swap1\n  pop\n  jump\t// out\n    /* \"#utility.yul\":90:270   */\ntag_30:\n    /* \"#utility.yul\":138:215   */\n  0x4e487b7100000000000000000000000000000000000000000000000000000000\n    /* \"#utility.yul\":135:136   */\n  0x00\n    /* \"#utility.yul\":128:216   */\n  mstore\n    /* \"#utility.yul\":235:239   */\n  0x11\n    /* \"#utility.yul\":232:233   */\n  0x04\n    /* \"#utility.yul\":225:240   */\n  mstore\n    /* \"#utility.yul\":259:263   */\n  0x24\n    /* \"#utility.yul\":256:257   */\n  0x00\n    /* \"#utility.yul\":249:264   */\n  revert\n    /* \"#utility.yul\":276:467   */\ntag_9:\n    /* \"#utility.yul\":316:319   */\n  0x00\n    /* \"#utility.yul\":335:355   */\n  tag_42\n    /* \"#utility.yul\":353:354   */\n  dup3\n    /* \"#utility.yul\":335:355   */\n  tag_29\n  jump\t// in\ntag_42:\n    /* \"#utility.yul\":330:355   */\n  swap2\n  pop\n    /* \"#utility.yul\":369:389   */\n  tag_43\n    /* \"#utility.yul\":387:388   */\n  dup4\n    /* \"#utility.yul\":369:389   */\n  tag_29\n  jump\t// in\ntag_43:\n    /* \"#utility.yul\":364:389   */\n  swap3\n  pop\n    /* \"#utility.yul\":412:413   */\n  dup3\n    /* \"#utility.yul\":409:410   */\n  dup3\n    /* \"#utility.yul\":405:414   */\n  add\n    /* \"#utility.yul\":398:414   */\n  swap1\n  pop\n    /* \"#utility.yul\":433:436   */\n  dup1\n    /* \"#utility.yul\":430:431   */\n  dup3\n    /* \"#utility.yul\":427:437   */\n  gt\n    /* \"#utility.yul\":424:460   */\n  iszero\n  tag_44\n  jumpi\n    /* \"#utility.yul\":440:458   */\n  tag_45\n  tag_30\n  jump\t// in\ntag_45:\n    /* \"#utility.yul\":424:460   */\ntag_44:\n    /* \"#utility.yul\":276:467   */\n  swap3\n  swap2\n  pop\n  pop\n  jump\t// out\n    /* \"#utility.yul\":473:552   */\ntag_31:\n    /* \"#utility.yul\":512:519   */\n  0x00\n    /* \"#utility.yul\":541:546   */\n  dup2\n    /* \"#utility.yul\":530:546   */\n  swap1\n  pop\n    /* \"#utility.yul\":473:552   */\n  swap2\n  swap1\n  pop\n  jump\t// out\n    /* \"#utility.yul\":558:715   */\ntag_32:\n    /* \"#utility.yul\":663:708   */\n  tag_48\n    /* \"#utility.yul\":683:707   */\n  tag_49\n    /* \"#utility.yul\":701:706   */\n  dup3\n    /* \"#utility.yul\":683:707   */\n  tag_29\n  jump\t// in\ntag_49:\n    /* \"#utility.yul\":663:708   */\n  tag_31\n  jump\t// in\ntag_48:\n    /* \"#utility.yul\":658:661   */\n  dup3\n    /* \"#utility.yul\":651:709   */\n  mstore\n    /* \"#utility.yul\":558:715   */\n  pop\n  pop\n  jump\t// out\n    /* \"#utility.yul\":721:798   */\ntag_33:\n    /* \"#utility.yul\":758:765   */\n  0x00\n    /* \"#utility.yul\":787:792   */\n  dup2\n    /* \"#utility.yul\":776:792   */\n  swap1\n  pop\n    /* \"#utility.yul\":721:798   */\n  swap2\n  swap1\n  pop\n  jump\t// out\n    /* \"#utility.yul\":804:883   */\ntag_34:\n    /* \"#utility.yul\":843:850   */\n  0x00\n    /* \"#utility.yul\":872:877   */\n  dup2\n    /* \"#utility.yul\":861:877   */\n  swap1\n  pop\n    /* \"#utility.yul\":804:883   */\n  swap2\n  swap1\n  pop\n  jump\t// out\n    /* \"#utility.yul\":889:1046   */\ntag_35:\n    /* \"#utility.yul\":994:1039   */\n  tag_53\n    /* \"#utility.yul\":1014:1038   */\n  tag_54\n    /* \"#utility.yul\":1032:1037   */\n  dup3\n    /* \"#utility.yul\":1014:1038   */\n  tag_33\n  jump\t// in\ntag_54:\n    /* \"#utility.yul\":994:1039   */\n  tag_34\n  jump\t// in\ntag_53:\n    /* \"#utility.yul\":989:992   */\n  dup3\n    /* \"#utility.yul\":982:1040   */\n  mstore\n    /* \"#utility.yul\":889:1046   */\n  pop\n  pop\n  jump\t// out\n    /* \"#utility.yul\":1052:1731   */\ntag_11:\n    /* \"#utility.yul\":1248:1251   */\n  0x00\n    /* \"#utility.yul\":1263:1338   */\n  tag_56\n    /* \"#utility.yul\":1334:1337   */\n  dup3\n    /* \"#utility.yul\":1325:1331   */\n  dup8\n    /* \"#utility.yul\":1263:1338   */\n  tag_32\n  jump\t// in\ntag_56:\n    /* \"#utility.yul\":1363:1365   */\n  0x20\n    /* \"#utility.yul\":1358:1361   */\n  dup3\n    /* \"#utility.yul\":1354:1366   */\n  add\n    /* \"#utility.yul\":1347:1366   */\n  swap2\n  pop\n    /* \"#utility.yul\":1376:1451   */\n  tag_57\n    /* \"#utility.yul\":1447:1450   */\n  dup3\n    /* \"#utility.yul\":1438:1444   */\n  dup7\n    /* \"#utility.yul\":1376:1451   */\n  tag_32\n  jump\t// in\ntag_57:\n    /* \"#utility.yul\":1476:1478   */\n  0x20\n    /* \"#utility.yul\":1471:1474   */\n  dup3\n    /* \"#utility.yul\":1467:1479   */\n  add\n    /* \"#utility.yul\":1460:1479   */\n  swap2\n  pop\n    /* \"#utility.yul\":1489:1564   */\n  tag_58\n    /* \"#utility.yul\":1560:1563   */\n  dup3\n    /* \"#utility.yul\":1551:1557   */\n  dup6\n    /* \"#utility.yul\":1489:1564   */\n  tag_35\n  jump\t// in\ntag_58:\n    /* \"#utility.yul\":1589:1591   */\n  0x20\n    /* \"#utility.yul\":1584:1587   */\n  dup3\n    /* \"#utility.yul\":1580:1592   */\n  add\n    /* \"#utility.yul\":1573:1592   */\n  swap2\n  pop\n    /* \"#utility.yul\":1602:1677   */\n  tag_59\n    /* \"#utility.yul\":1673:1676   */\n  dup3\n    /* \"#utility.yul\":1664:1670   */\n  dup5\n    /* \"#utility.yul\":1602:1677   */\n  tag_32\n  jump\t// in\ntag_59:\n    /* \"#utility.yul\":1702:1704   */\n  0x20\n    /* \"#utility.yul\":1697:1700   */\n  dup3\n    /* \"#utility.yul\":1693:1705   */\n  add\n    /* \"#utility.yul\":1686:1705   */\n  swap2\n  pop\n    /* \"#utility.yul\":1722:1725   */\n  dup2\n    /* \"#utility.yul\":1715:1725   */\n  swap1\n  pop\n    /* \"#utility.yul\":1052:1731   */\n  swap6\n  swap5\n  pop\n  pop\n  pop\n  pop\n  pop\n  jump\t// out\n    /* \"#utility.yul\":1737:1917   */\ntag_17:\n    /* \"#utility.yul\":1785:1862   */\n  0x4e487b7100000000000000000000000000000000000000000000000000000000\n    /* \"#utility.yul\":1782:1783   */\n  0x00\n    /* \"#utility.yul\":1775:1863   */\n  mstore\n    /* \"#utility.yul\":1882:1886   */\n  0x32\n    /* \"#utility.yul\":1879:1880   */\n  0x04\n    /* \"#utility.yul\":1872:1887   */\n  mstore\n    /* \"#utility.yul\":1906:1910   */\n  0x24\n    /* \"#utility.yul\":1903:1904   */\n  0x00\n    /* \"#utility.yul\":1896:1911   */\n  revert\n    /* \"#utility.yul\":1923:2041   */\ntag_36:\n    /* \"#utility.yul\":2010:2034   */\n  tag_62\n    /* \"#utility.yul\":2028:2033   */\n  dup2\n    /* \"#utility.yul\":2010:2034   */\n  tag_29\n  jump\t// in\ntag_62:\n    /* \"#utility.yul\":2005:2008   */\n  dup3\n    /* \"#utility.yul\":1998:2035   */\n  mstore\n    /* \"#utility.yul\":1923:2041   */\n  pop\n  pop\n  jump\t// out\n    /* \"#utility.yul\":2047:2165   */\ntag_37:\n    /* \"#utility.yul\":2134:2158   */\n  tag_64\n    /* \"#utility.yul\":2152:2157   */\n  dup2\n    /* \"#utility.yul\":2134:2158   */\n  tag_33\n  jump\t// in\ntag_64:\n    /* \"#utility.yul\":2129:2132   */\n  dup3\n    /* \"#utility.yul\":2122:2159   */\n  mstore\n    /* \"#utility.yul\":2047:2165   */\n  pop\n  pop\n  jump\t// out\n    /* \"#utility.yul\":2171:2503   */\ntag_23:\n    /* \"#utility.yul\":2292:2296   */\n  0x00\n    /* \"#utility.yul\":2330:2332   */\n  0x40\n    /* \"#utility.yul\":2319:2328   */\n  dup3\n    /* \"#utility.yul\":2315:2333   */\n  add\n    /* \"#utility.yul\":2307:2333   */\n  swap1\n  pop\n    /* \"#utility.yul\":2343:2414   */\n  tag_66\n    /* \"#utility.yul\":2411:2412   */\n  0x00\n    /* \"#utility.yul\":2400:2409   */\n  dup4\n    /* \"#utility.yul\":2396:2413   */\n  add\n    /* \"#utility.yul\":2387:2393   */\n  dup6\n    /* \"#utility.yul\":2343:2414   */\n  tag_36\n  jump\t// in\ntag_66:\n    /* \"#utility.yul\":2424:2496   */\n  tag_67\n    /* \"#utility.yul\":2492:2494   */\n  0x20\n    /* \"#utility.yul\":2481:2490   */\n  dup4\n    /* \"#utility.yul\":2477:2495   */\n  add\n    /* \"#utility.yul\":2468:2474   */\n  dup5\n    /* \"#utility.yul\":2424:2496   */\n  tag_37\n  jump\t// in\ntag_67:\n    /* \"#utility.yul\":2171:2503   */\n  swap4\n  swap3\n  pop\n  pop\n  pop\n  jump\t// out\n    /* \"contracts/SimpleBlockchain.sol\":60:2759  contract SimpleBlockchain {... */\ntag_6:\n  dataSize(sub_0)\n  dup1\n  dataOffset(sub_0)\n  0x00\n  codecopy\n  0x00\n  return\nstop\n\nsub_0: assembly {\n        /* \"contracts/SimpleBlockchain.sol\":60:2759  contract SimpleBlockchain {... */\n      mstore(0x40, 0x80)\n      callvalue\n      dup1\n      iszero\n      tag_1\n      jumpi\n      revert(0x00, 0x00)\n    tag_1:\n      pop\n      jumpi(tag_2, lt(calldatasize, 0x04))\n      shr(0xe0, calldataload(0x00))\n      dup1\n      0x78a1ff8f\n      gt\n      tag_11\n      jumpi\n      dup1\n      0x78a1ff8f\n      eq\n      tag_7\n      jumpi\n      dup1\n      0x84a37273\n      eq\n      tag_8\n      jumpi\n      dup1\n      0xde2a62a5\n      eq\n      tag_9\n      jumpi\n      dup1\n      0xf25b3f99\n      eq\n      tag_10\n      jumpi\n      jump(tag_2)\n    tag_11:\n      dup1\n      0x04c07569\n      eq\n      tag_3\n      jumpi\n      dup1\n      0x219ee89c\n      eq\n      tag_4\n      jumpi\n      dup1\n      0x578f2aa0\n      eq\n      tag_5\n      jumpi\n      dup1\n      0x7303f6ce\n      eq\n      tag_6\n      jumpi\n    tag_2:\n      revert(0x00, 0x00)\n        /* \"contracts/SimpleBlockchain.sol\":2009:2341  function getBlock(uint256 index) external view returns (... */\n    tag_3:\n      tag_12\n      0x04\n      dup1\n      calldatasize\n      sub\n      dup2\n      add\n      swap1\n      tag_13\n      swap2\n      swap1\n      tag_14\n      jump\t// in\n    tag_13:\n      tag_15\n      jump\t// in\n    tag_12:\n      mload(0x40)\n      tag_16\n      swap6\n      swap5\n      swap4\n      swap3\n      swap2\n      swap1\n      tag_17\n      jump\t// in\n    tag_16:\n      mload(0x40)\n      dup1\n      swap2\n      sub\n      swap1\n      return\n        /* \"contracts/SimpleBlockchain.sol\":2664:2756  function chainLength() external view returns (uint256) {... */\n    tag_4:\n      tag_18\n      tag_19\n      jump\t// in\n    tag_18:\n      mload(0x40)\n      tag_20\n      swap2\n      swap1\n      tag_21\n      jump\t// in\n    tag_20:\n      mload(0x40)\n      dup1\n      swap2\n      sub\n      swap1\n      return\n        /* \"contracts/SimpleBlockchain.sol\":461:487  uint256 public latestIndex */\n    tag_5:\n      tag_22\n      tag_23\n      jump\t// in\n    tag_22:\n      mload(0x40)\n      tag_24\n      swap2\n      swap1\n      tag_21\n      jump\t// in\n    tag_24:\n      mload(0x40)\n      dup1\n      swap2\n      sub\n      swap1\n      return\n        /* \"contracts/SimpleBlockchain.sol\":2349:2656  function getTransaction(... */\n    tag_6:\n      tag_25\n      0x04\n      dup1\n      calldatasize\n      sub\n      dup2\n      add\n      swap1\n      tag_26\n      swap2\n      swap1\n      tag_27\n      jump\t// in\n    tag_26:\n      tag_28\n      jump\t// in\n    tag_25:\n      mload(0x40)\n      tag_29\n      swap5\n      swap4\n      swap3\n      swap2\n      swap1\n      tag_30\n      jump\t// in\n    tag_29:\n      mload(0x40)\n      dup1\n      swap2\n      sub\n      swap1\n      return\n        /* \"contracts/SimpleBlockchain.sol\":1849:2001  function mineBlock() external returns (uint256) {... */\n    tag_7:\n      tag_31\n      tag_32\n      jump\t// in\n    tag_31:\n      mload(0x40)\n      tag_33\n      swap2\n      swap1\n      tag_21\n      jump\t// in\n    tag_33:\n      mload(0x40)\n      dup1\n      swap2\n      sub\n      swap1\n      return\n        /* \"contracts/SimpleBlockchain.sol\":1470:1841  function addTransaction(address receiver, uint256 amount) external {... */\n    tag_8:\n      tag_34\n      0x04\n      dup1\n      calldatasize\n      sub\n      dup2\n      add\n      swap1\n      tag_35\n      swap2\n      swap1\n      tag_36\n      jump\t// in\n    tag_35:\n      tag_37\n      jump\t// in\n    tag_34:\n      stop\n        /* \"contracts/SimpleBlockchain.sol\":496:526  Transaction[] public pendingTx */\n    tag_9:\n      tag_38\n      0x04\n      dup1\n      calldatasize\n      sub\n      dup2\n      add\n      swap1\n      tag_39\n      swap2\n      swap1\n      tag_14\n      jump\t// in\n    tag_39:\n      tag_40\n      jump\t// in\n    tag_38:\n      mload(0x40)\n      tag_41\n      swap5\n      swap4\n      swap3\n      swap2\n      swap1\n      tag_30\n      jump\t// in\n    tag_41:\n      mload(0x40)\n      dup1\n      swap2\n      sub\n      swap1\n      return\n        /* \"contracts/SimpleBlockchain.sol\":409:454  mapping(uint256 => BlockStruct) public blocks */\n    tag_10:\n      tag_42\n      0x04\n      dup1\n      calldatasize\n      sub\n      dup2\n      add\n      swap1\n      tag_43\n      swap2\n      swap1\n      tag_14\n      jump\t// in\n    tag_43:\n      tag_44\n      jump\t// in\n    tag_42:\n      mload(0x40)\n      tag_45\n      swap5\n      swap4\n      swap3\n      swap2\n      swap1\n      tag_46\n      jump\t// in\n    tag_45:\n      mload(0x40)\n      dup1\n      swap2\n      sub\n      swap1\n      return\n        /* \"contracts/SimpleBlockchain.sol\":2009:2341  function getBlock(uint256 index) external view returns (... */\n    tag_15:\n        /* \"contracts/SimpleBlockchain.sol\":2075:2082  uint256 */\n      0x00\n        /* \"contracts/SimpleBlockchain.sol\":2084:2091  uint256 */\n      0x00\n        /* \"contracts/SimpleBlockchain.sol\":2093:2100  bytes32 */\n      0x00\n        /* \"contracts/SimpleBlockchain.sol\":2102:2109  bytes32 */\n      0x00\n        /* \"contracts/SimpleBlockchain.sol\":2111:2118  uint256 */\n      0x00\n        /* \"contracts/SimpleBlockchain.sol\":2137:2158  BlockStruct storage b */\n      0x00\n        /* \"contracts/SimpleBlockchain.sol\":2161:2167  blocks */\n      0x00\n        /* \"contracts/SimpleBlockchain.sol\":2161:2174  blocks[index] */\n      0x00\n        /* \"contracts/SimpleBlockchain.sol\":2168:2173  index */\n      dup9\n        /* \"contracts/SimpleBlockchain.sol\":2161:2174  blocks[index] */\n      dup2\n      mstore\n      0x20\n      add\n      swap1\n      dup2\n      mstore\n      0x20\n      add\n      0x00\n      keccak256\n        /* \"contracts/SimpleBlockchain.sol\":2137:2174  BlockStruct storage b = blocks[index] */\n      swap1\n      pop\n        /* \"contracts/SimpleBlockchain.sol\":2207:2208  b */\n      dup1\n        /* \"contracts/SimpleBlockchain.sol\":2207:2214  b.index */\n      0x00\n      add\n      sload\n        /* \"contracts/SimpleBlockchain.sol\":2229:2230  b */\n      dup2\n        /* \"contracts/SimpleBlockchain.sol\":2229:2240  b.timestamp */\n      0x01\n      add\n      sload\n        /* \"contracts/SimpleBlockchain.sol\":2255:2256  b */\n      dup3\n        /* \"contracts/SimpleBlockchain.sol\":2255:2265  b.prevHash */\n      0x03\n      add\n      sload\n        /* \"contracts/SimpleBlockchain.sol\":2280:2281  b */\n      dup4\n        /* \"contracts/SimpleBlockchain.sol\":2280:2286  b.hash */\n      0x04\n      add\n      sload\n        /* \"contracts/SimpleBlockchain.sol\":2301:2302  b */\n      dup5\n        /* \"contracts/SimpleBlockchain.sol\":2301:2315  b.transactions */\n      0x02\n      add\n        /* \"contracts/SimpleBlockchain.sol\":2301:2322  b.transactions.length */\n      dup1\n      sload\n      swap1\n      pop\n        /* \"contracts/SimpleBlockchain.sol\":2185:2333  return (... */\n      swap6\n      pop\n      swap6\n      pop\n      swap6\n      pop\n      swap6\n      pop\n      swap6\n      pop\n      pop\n        /* \"contracts/SimpleBlockchain.sol\":2009:2341  function getBlock(uint256 index) external view returns (... */\n      swap2\n      swap4\n      swap6\n      swap1\n      swap3\n      swap5\n      pop\n      jump\t// out\n        /* \"contracts/SimpleBlockchain.sol\":2664:2756  function chainLength() external view returns (uint256) {... */\n    tag_19:\n        /* \"contracts/SimpleBlockchain.sol\":2710:2717  uint256 */\n      0x00\n        /* \"contracts/SimpleBlockchain.sol\":2737:2748  latestIndex */\n      sload(0x01)\n        /* \"contracts/SimpleBlockchain.sol\":2730:2748  return latestIndex */\n      swap1\n      pop\n        /* \"contracts/SimpleBlockchain.sol\":2664:2756  function chainLength() external view returns (uint256) {... */\n      swap1\n      jump\t// out\n        /* \"contracts/SimpleBlockchain.sol\":461:487  uint256 public latestIndex */\n    tag_23:\n      sload(0x01)\n      dup2\n      jump\t// out\n        /* \"contracts/SimpleBlockchain.sol\":2349:2656  function getTransaction(... */\n    tag_28:\n        /* \"contracts/SimpleBlockchain.sol\":2468:2475  address */\n      0x00\n        /* \"contracts/SimpleBlockchain.sol\":2477:2484  address */\n      0x00\n        /* \"contracts/SimpleBlockchain.sol\":2486:2493  uint256 */\n      0x00\n        /* \"contracts/SimpleBlockchain.sol\":2495:2502  uint256 */\n      0x00\n        /* \"contracts/SimpleBlockchain.sol\":2521:2542  Transaction storage t */\n      0x00\n        /* \"contracts/SimpleBlockchain.sol\":2545:2551  blocks */\n      0x00\n        /* \"contracts/SimpleBlockchain.sol\":2545:2563  blocks[blockIndex] */\n      0x00\n        /* \"contracts/SimpleBlockchain.sol\":2552:2562  blockIndex */\n      dup9\n        /* \"contracts/SimpleBlockchain.sol\":2545:2563  blocks[blockIndex] */\n      dup2\n      mstore\n      0x20\n      add\n      swap1\n      dup2\n      mstore\n      0x20\n      add\n      0x00\n      keccak256\n        /* \"contracts/SimpleBlockchain.sol\":2545:2576  blocks[blockIndex].transactions */\n      0x02\n      add\n        /* \"contracts/SimpleBlockchain.sol\":2577:2584  txIndex */\n      dup7\n        /* \"contracts/SimpleBlockchain.sol\":2545:2585  blocks[blockIndex].transactions[txIndex] */\n      dup2\n      sload\n      dup2\n      lt\n      tag_50\n      jumpi\n      tag_51\n      tag_52\n      jump\t// in\n    tag_51:\n    tag_50:\n      swap1\n      0x00\n      mstore\n      keccak256(0x00, 0x20)\n      swap1\n      0x04\n      mul\n      add\n        /* \"contracts/SimpleBlockchain.sol\":2521:2585  Transaction storage t = blocks[blockIndex].transactions[txIndex] */\n      swap1\n      pop\n        /* \"contracts/SimpleBlockchain.sol\":2604:2605  t */\n      dup1\n        /* \"contracts/SimpleBlockchain.sol\":2604:2612  t.sender */\n      0x00\n      add\n      0x00\n      swap1\n      sload\n      swap1\n      0x0100\n      exp\n      swap1\n      div\n      0xffffffffffffffffffffffffffffffffffffffff\n      and\n        /* \"contracts/SimpleBlockchain.sol\":2614:2615  t */\n      dup2\n        /* \"contracts/SimpleBlockchain.sol\":2614:2624  t.receiver */\n      0x01\n      add\n      0x00\n      swap1\n      sload\n      swap1\n      0x0100\n      exp\n      swap1\n      div\n      0xffffffffffffffffffffffffffffffffffffffff\n      and\n        /* \"contracts/SimpleBlockchain.sol\":2626:2627  t */\n      dup3\n        /* \"contracts/SimpleBlockchain.sol\":2626:2634  t.amount */\n      0x02\n      add\n      sload\n        /* \"contracts/SimpleBlockchain.sol\":2636:2637  t */\n      dup4\n        /* \"contracts/SimpleBlockchain.sol\":2636:2647  t.timestamp */\n      0x03\n      add\n      sload\n        /* \"contracts/SimpleBlockchain.sol\":2596:2648  return (t.sender, t.receiver, t.amount, t.timestamp) */\n      swap5\n      pop\n      swap5\n      pop\n      swap5\n      pop\n      swap5\n      pop\n      pop\n        /* \"contracts/SimpleBlockchain.sol\":2349:2656  function getTransaction(... */\n      swap3\n      swap6\n      swap2\n      swap5\n      pop\n      swap3\n      pop\n      jump\t// out\n        /* \"contracts/SimpleBlockchain.sol\":1849:2001  function mineBlock() external returns (uint256) {... */\n    tag_32:\n        /* \"contracts/SimpleBlockchain.sol\":1888:1895  uint256 */\n      0x00\n        /* \"contracts/SimpleBlockchain.sol\":1935:1936  0 */\n      0x00\n        /* \"contracts/SimpleBlockchain.sol\":1916:1925  pendingTx */\n      0x02\n        /* \"contracts/SimpleBlockchain.sol\":1916:1932  pendingTx.length */\n      dup1\n      sload\n      swap1\n      pop\n        /* \"contracts/SimpleBlockchain.sol\":1916:1936  pendingTx.length > 0 */\n      gt\n        /* \"contracts/SimpleBlockchain.sol\":1908:1964  require(pendingTx.length > 0, \"No pending transactions\") */\n      tag_55\n      jumpi\n      mload(0x40)\n      0x08c379a000000000000000000000000000000000000000000000000000000000\n      dup2\n      mstore\n      0x04\n      add\n      tag_56\n      swap1\n      tag_57\n      jump\t// in\n    tag_56:\n      mload(0x40)\n      dup1\n      swap2\n      sub\n      swap1\n      revert\n    tag_55:\n        /* \"contracts/SimpleBlockchain.sol\":1982:1993  _addBlock() */\n      tag_58\n        /* \"contracts/SimpleBlockchain.sol\":1982:1991  _addBlock */\n      tag_59\n        /* \"contracts/SimpleBlockchain.sol\":1982:1993  _addBlock() */\n      jump\t// in\n    tag_58:\n        /* \"contracts/SimpleBlockchain.sol\":1975:1993  return _addBlock() */\n      swap1\n      pop\n        /* \"contracts/SimpleBlockchain.sol\":1849:2001  function mineBlock() external returns (uint256) {... */\n      swap1\n      jump\t// out\n        /* \"contracts/SimpleBlockchain.sol\":1470:1841  function addTransaction(address receiver, uint256 amount) external {... */\n    tag_37:\n        /* \"contracts/SimpleBlockchain.sol\":1548:1572  Transaction memory txObj */\n      0x00\n        /* \"contracts/SimpleBlockchain.sol\":1575:1735  Transaction({... */\n      mload(0x40)\n      dup1\n      0x80\n      add\n      0x40\n      mstore\n      dup1\n        /* \"contracts/SimpleBlockchain.sol\":1610:1620  msg.sender */\n      caller\n        /* \"contracts/SimpleBlockchain.sol\":1575:1735  Transaction({... */\n      0xffffffffffffffffffffffffffffffffffffffff\n      and\n      dup2\n      mstore\n      0x20\n      add\n        /* \"contracts/SimpleBlockchain.sol\":1645:1653  receiver */\n      dup5\n        /* \"contracts/SimpleBlockchain.sol\":1575:1735  Transaction({... */\n      0xffffffffffffffffffffffffffffffffffffffff\n      and\n      dup2\n      mstore\n      0x20\n      add\n        /* \"contracts/SimpleBlockchain.sol\":1676:1682  amount */\n      dup4\n        /* \"contracts/SimpleBlockchain.sol\":1575:1735  Transaction({... */\n      dup2\n      mstore\n      0x20\n      add\n        /* \"contracts/SimpleBlockchain.sol\":1708:1723  block.timestamp */\n      timestamp\n        /* \"contracts/SimpleBlockchain.sol\":1575:1735  Transaction({... */\n      dup2\n      mstore\n      pop\n        /* \"contracts/SimpleBlockchain.sol\":1548:1735  Transaction memory txObj = Transaction({... */\n      swap1\n      pop\n        /* \"contracts/SimpleBlockchain.sol\":1748:1757  pendingTx */\n      0x02\n        /* \"contracts/SimpleBlockchain.sol\":1763:1768  txObj */\n      dup2\n        /* \"contracts/SimpleBlockchain.sol\":1748:1769  pendingTx.push(txObj) */\n      swap1\n      dup1\n      0x01\n      dup2\n      sload\n      add\n      dup1\n      dup3\n      sstore\n      dup1\n      swap2\n      pop\n      pop\n      0x01\n      swap1\n      sub\n      swap1\n      0x00\n      mstore\n      keccak256(0x00, 0x20)\n      swap1\n      0x04\n      mul\n      add\n      0x00\n      swap1\n      swap2\n      swap1\n      swap2\n      swap1\n      swap2\n      pop\n      0x00\n      dup3\n      add\n      mload\n      dup2\n      0x00\n      add\n      exp(0x0100, 0x00)\n      dup2\n      sload\n      dup2\n      0xffffffffffffffffffffffffffffffffffffffff\n      mul\n      not\n      and\n      swap1\n      dup4\n      0xffffffffffffffffffffffffffffffffffffffff\n      and\n      mul\n      or\n      swap1\n      sstore\n      pop\n      0x20\n      dup3\n      add\n      mload\n      dup2\n      0x01\n      add\n      exp(0x0100, 0x00)\n      dup2\n      sload\n      dup2\n      0xffffffffffffffffffffffffffffffffffffffff\n      mul\n      not\n      and\n      swap1\n      dup4\n      0xffffffffffffffffffffffffffffffffffffffff\n      and\n      mul\n      or\n      swap1\n      sstore\n      pop\n      0x40\n      dup3\n      add\n      mload\n      dup2\n      0x02\n      add\n      sstore\n      0x60\n      dup3\n      add\n      mload\n      dup2\n      0x03\n      add\n      sstore\n      pop\n      pop\n        /* \"contracts/SimpleBlockchain.sol\":1787:1833  TransactionAdded(msg.sender, receiver, amount) */\n      0xa3f77c7251c1c7e67c7f892afa5ca0a98096c9119e947663f4a96852c743f430\n        /* \"contracts/SimpleBlockchain.sol\":1804:1814  msg.sender */\n      caller\n        /* \"contracts/SimpleBlockchain.sol\":1816:1824  receiver */\n      dup5\n        /* \"contracts/SimpleBlockchain.sol\":1826:1832  amount */\n      dup5\n        /* \"contracts/SimpleBlockchain.sol\":1787:1833  TransactionAdded(msg.sender, receiver, amount) */\n      mload(0x40)\n      tag_62\n      swap4\n      swap3\n      swap2\n      swap1\n      tag_63\n      jump\t// in\n    tag_62:\n      mload(0x40)\n      dup1\n      swap2\n      sub\n      swap1\n      log1\n        /* \"contracts/SimpleBlockchain.sol\":1537:1841  {... */\n      pop\n        /* \"contracts/SimpleBlockchain.sol\":1470:1841  function addTransaction(address receiver, uint256 amount) external {... */\n      pop\n      pop\n      jump\t// out\n        /* \"contracts/SimpleBlockchain.sol\":496:526  Transaction[] public pendingTx */\n    tag_40:\n      0x02\n      dup2\n      dup2\n      sload\n      dup2\n      lt\n      tag_64\n      jumpi\n      0x00\n      dup1\n      revert\n    tag_64:\n      swap1\n      0x00\n      mstore\n      keccak256(0x00, 0x20)\n      swap1\n      0x04\n      mul\n      add\n      0x00\n      swap2\n      pop\n      swap1\n      pop\n      dup1\n      0x00\n      add\n      0x00\n      swap1\n      sload\n      swap1\n      0x0100\n      exp\n      swap1\n      div\n      0xffffffffffffffffffffffffffffffffffffffff\n      and\n      swap1\n      dup1\n      0x01\n      add\n      0x00\n      swap1\n      sload\n      swap1\n      0x0100\n      exp\n      swap1\n      div\n      0xffffffffffffffffffffffffffffffffffffffff\n      and\n      swap1\n      dup1\n      0x02\n      add\n      sload\n      swap1\n      dup1\n      0x03\n      add\n      sload\n      swap1\n      pop\n      dup5\n      jump\t// out\n        /* \"contracts/SimpleBlockchain.sol\":409:454  mapping(uint256 => BlockStruct) public blocks */\n    tag_44:\n      mstore(0x20, 0x00)\n      dup1\n      0x00\n      mstore\n      keccak256(0x00, 0x40)\n      0x00\n      swap2\n      pop\n      swap1\n      pop\n      dup1\n      0x00\n      add\n      sload\n      swap1\n      dup1\n      0x01\n      add\n      sload\n      swap1\n      dup1\n      0x03\n      add\n      sload\n      swap1\n      dup1\n      0x04\n      add\n      sload\n      swap1\n      pop\n      dup5\n      jump\t// out\n        /* \"contracts/SimpleBlockchain.sol\":720:1462  function _addBlock() internal returns (uint256) {... */\n    tag_59:\n        /* \"contracts/SimpleBlockchain.sol\":759:766  uint256 */\n      0x00\n        /* \"contracts/SimpleBlockchain.sol\":779:792  uint256 index */\n      0x00\n        /* \"contracts/SimpleBlockchain.sol\":809:810  1 */\n      0x01\n        /* \"contracts/SimpleBlockchain.sol\":795:806  latestIndex */\n      dup1\n      sload\n        /* \"contracts/SimpleBlockchain.sol\":795:810  latestIndex + 1 */\n      tag_67\n      swap2\n      swap1\n      tag_68\n      jump\t// in\n    tag_67:\n        /* \"contracts/SimpleBlockchain.sol\":779:810  uint256 index = latestIndex + 1 */\n      swap1\n      pop\n        /* \"contracts/SimpleBlockchain.sol\":821:831  uint256 ts */\n      0x00\n        /* \"contracts/SimpleBlockchain.sol\":834:849  block.timestamp */\n      timestamp\n        /* \"contracts/SimpleBlockchain.sol\":821:849  uint256 ts = block.timestamp */\n      swap1\n      pop\n        /* \"contracts/SimpleBlockchain.sol\":862:878  bytes32 prevHash */\n      0x00\n        /* \"contracts/SimpleBlockchain.sol\":881:887  blocks */\n      0x00\n        /* \"contracts/SimpleBlockchain.sol\":881:900  blocks[latestIndex] */\n      0x00\n        /* \"contracts/SimpleBlockchain.sol\":888:899  latestIndex */\n      sload(0x01)\n        /* \"contracts/SimpleBlockchain.sol\":881:900  blocks[latestIndex] */\n      dup2\n      mstore\n      0x20\n      add\n      swap1\n      dup2\n      mstore\n      0x20\n      add\n      0x00\n      keccak256\n        /* \"contracts/SimpleBlockchain.sol\":881:905  blocks[latestIndex].hash */\n      0x04\n      add\n      sload\n        /* \"contracts/SimpleBlockchain.sol\":862:905  bytes32 prevHash = blocks[latestIndex].hash */\n      swap1\n      pop\n        /* \"contracts/SimpleBlockchain.sol\":918:927  bytes32 h */\n      0x00\n        /* \"contracts/SimpleBlockchain.sol\":971:976  index */\n      dup4\n        /* \"contracts/SimpleBlockchain.sol\":978:980  ts */\n      dup4\n        /* \"contracts/SimpleBlockchain.sol\":982:990  prevHash */\n      dup4\n        /* \"contracts/SimpleBlockchain.sol\":992:1001  pendingTx */\n      0x02\n        /* \"contracts/SimpleBlockchain.sol\":992:1008  pendingTx.length */\n      dup1\n      sload\n      swap1\n      pop\n        /* \"contracts/SimpleBlockchain.sol\":954:1009  abi.encodePacked(index, ts, prevHash, pendingTx.length) */\n      add(0x20, mload(0x40))\n      tag_69\n      swap5\n      swap4\n      swap3\n      swap2\n      swap1\n      tag_70\n      jump\t// in\n    tag_69:\n      mload(0x40)\n      0x20\n      dup2\n      dup4\n      sub\n      sub\n      dup2\n      mstore\n      swap1\n      0x40\n      mstore\n        /* \"contracts/SimpleBlockchain.sol\":930:1020  keccak256(... */\n      dup1\n      mload\n      swap1\n      0x20\n      add\n      keccak256\n        /* \"contracts/SimpleBlockchain.sol\":918:1020  bytes32 h = keccak256(... */\n      swap1\n      pop\n        /* \"contracts/SimpleBlockchain.sol\":1033:1061  BlockStruct storage newBlock */\n      0x00\n        /* \"contracts/SimpleBlockchain.sol\":1064:1070  blocks */\n      0x00\n        /* \"contracts/SimpleBlockchain.sol\":1064:1077  blocks[index] */\n      0x00\n        /* \"contracts/SimpleBlockchain.sol\":1071:1076  index */\n      dup7\n        /* \"contracts/SimpleBlockchain.sol\":1064:1077  blocks[index] */\n      dup2\n      mstore\n      0x20\n      add\n      swap1\n      dup2\n      mstore\n      0x20\n      add\n      0x00\n      keccak256\n        /* \"contracts/SimpleBlockchain.sol\":1033:1077  BlockStruct storage newBlock = blocks[index] */\n      swap1\n      pop\n        /* \"contracts/SimpleBlockchain.sol\":1105:1110  index */\n      dup5\n        /* \"contracts/SimpleBlockchain.sol\":1088:1096  newBlock */\n      dup2\n        /* \"contracts/SimpleBlockchain.sol\":1088:1102  newBlock.index */\n      0x00\n      add\n        /* \"contracts/SimpleBlockchain.sol\":1088:1110  newBlock.index = index */\n      dup2\n      swap1\n      sstore\n      pop\n        /* \"contracts/SimpleBlockchain.sol\":1142:1144  ts */\n      dup4\n        /* \"contracts/SimpleBlockchain.sol\":1121:1129  newBlock */\n      dup2\n        /* \"contracts/SimpleBlockchain.sol\":1121:1139  newBlock.timestamp */\n      0x01\n      add\n        /* \"contracts/SimpleBlockchain.sol\":1121:1144  newBlock.timestamp = ts */\n      dup2\n      swap1\n      sstore\n      pop\n        /* \"contracts/SimpleBlockchain.sol\":1175:1183  prevHash */\n      dup3\n        /* \"contracts/SimpleBlockchain.sol\":1155:1163  newBlock */\n      dup2\n        /* \"contracts/SimpleBlockchain.sol\":1155:1172  newBlock.prevHash */\n      0x03\n      add\n        /* \"contracts/SimpleBlockchain.sol\":1155:1183  newBlock.prevHash = prevHash */\n      dup2\n      swap1\n      sstore\n      pop\n        /* \"contracts/SimpleBlockchain.sol\":1210:1211  h */\n      dup2\n        /* \"contracts/SimpleBlockchain.sol\":1194:1202  newBlock */\n      dup2\n        /* \"contracts/SimpleBlockchain.sol\":1194:1207  newBlock.hash */\n      0x04\n      add\n        /* \"contracts/SimpleBlockchain.sol\":1194:1211  newBlock.hash = h */\n      dup2\n      swap1\n      sstore\n      pop\n        /* \"contracts/SimpleBlockchain.sol\":1229:1235  uint i */\n      0x00\n        /* \"contracts/SimpleBlockchain.sol\":1238:1239  0 */\n      0x00\n        /* \"contracts/SimpleBlockchain.sol\":1229:1239  uint i = 0 */\n      swap1\n      pop\n        /* \"contracts/SimpleBlockchain.sol\":1224:1335  for (uint i = 0; i < pendingTx.length; i++) {... */\n    tag_71:\n        /* \"contracts/SimpleBlockchain.sol\":1245:1254  pendingTx */\n      0x02\n        /* \"contracts/SimpleBlockchain.sol\":1245:1261  pendingTx.length */\n      dup1\n      sload\n      swap1\n      pop\n        /* \"contracts/SimpleBlockchain.sol\":1241:1242  i */\n      dup2\n        /* \"contracts/SimpleBlockchain.sol\":1241:1261  i < pendingTx.length */\n      lt\n        /* \"contracts/SimpleBlockchain.sol\":1224:1335  for (uint i = 0; i < pendingTx.length; i++) {... */\n      iszero\n      tag_72\n      jumpi\n        /* \"contracts/SimpleBlockchain.sol\":1283:1291  newBlock */\n      dup2\n        /* \"contracts/SimpleBlockchain.sol\":1283:1304  newBlock.transactions */\n      0x02\n      add\n        /* \"contracts/SimpleBlockchain.sol\":1310:1319  pendingTx */\n      0x02\n        /* \"contracts/SimpleBlockchain.sol\":1320:1321  i */\n      dup3\n        /* \"contracts/SimpleBlockchain.sol\":1310:1322  pendingTx[i] */\n      dup2\n      sload\n      dup2\n      lt\n      tag_74\n      jumpi\n      tag_75\n      tag_52\n      jump\t// in\n    tag_75:\n    tag_74:\n      swap1\n      0x00\n      mstore\n      keccak256(0x00, 0x20)\n      swap1\n      0x04\n      mul\n      add\n        /* \"contracts/SimpleBlockchain.sol\":1283:1323  newBlock.transactions.push(pendingTx[i]) */\n      swap1\n      dup1\n      0x01\n      dup2\n      sload\n      add\n      dup1\n      dup3\n      sstore\n      dup1\n      swap2\n      pop\n      pop\n      0x01\n      swap1\n      sub\n      swap1\n      0x00\n      mstore\n      keccak256(0x00, 0x20)\n      swap1\n      0x04\n      mul\n      add\n      0x00\n      swap1\n      swap2\n      swap1\n      swap2\n      swap1\n      swap2\n      pop\n      0x00\n      dup3\n      add\n      0x00\n      swap1\n      sload\n      swap1\n      0x0100\n      exp\n      swap1\n      div\n      0xffffffffffffffffffffffffffffffffffffffff\n      and\n      dup2\n      0x00\n      add\n      exp(0x0100, 0x00)\n      dup2\n      sload\n      dup2\n      0xffffffffffffffffffffffffffffffffffffffff\n      mul\n      not\n      and\n      swap1\n      dup4\n      0xffffffffffffffffffffffffffffffffffffffff\n      and\n      mul\n      or\n      swap1\n      sstore\n      pop\n      0x01\n      dup3\n      add\n      0x00\n      swap1\n      sload\n      swap1\n      0x0100\n      exp\n      swap1\n      div\n      0xffffffffffffffffffffffffffffffffffffffff\n      and\n      dup2\n      0x01\n      add\n      exp(0x0100, 0x00)\n      dup2\n      sload\n      dup2\n      0xffffffffffffffffffffffffffffffffffffffff\n      mul\n      not\n      and\n      swap1\n      dup4\n      0xffffffffffffffffffffffffffffffffffffffff\n      and\n      mul\n      or\n      swap1\n      sstore\n      pop\n      0x02\n      dup3\n      add\n      sload\n      dup2\n      0x02\n      add\n      sstore\n      0x03\n      dup3\n      add\n      sload\n      dup2\n      0x03\n      add\n      sstore\n      pop\n      pop\n        /* \"contracts/SimpleBlockchain.sol\":1263:1266  i++ */\n      dup1\n      dup1\n      0x01\n      add\n      swap2\n      pop\n      pop\n        /* \"contracts/SimpleBlockchain.sol\":1224:1335  for (uint i = 0; i < pendingTx.length; i++) {... */\n      jump(tag_71)\n    tag_72:\n      pop\n        /* \"contracts/SimpleBlockchain.sol\":1354:1363  pendingTx */\n      0x02\n      0x00\n        /* \"contracts/SimpleBlockchain.sol\":1347:1363  delete pendingTx */\n      tag_78\n      swap2\n      swap1\n      tag_79\n      jump\t// in\n    tag_78:\n        /* \"contracts/SimpleBlockchain.sol\":1388:1393  index */\n      dup5\n        /* \"contracts/SimpleBlockchain.sol\":1374:1385  latestIndex */\n      0x01\n        /* \"contracts/SimpleBlockchain.sol\":1374:1393  latestIndex = index */\n      dup2\n      swap1\n      sstore\n      pop\n        /* \"contracts/SimpleBlockchain.sol\":1411:1431  BlockAdded(index, h) */\n      0x050523c6e97461ceaccc44540ab96e0c97be70813576164de6985b781dbbac19\n        /* \"contracts/SimpleBlockchain.sol\":1422:1427  index */\n      dup6\n        /* \"contracts/SimpleBlockchain.sol\":1429:1430  h */\n      dup4\n        /* \"contracts/SimpleBlockchain.sol\":1411:1431  BlockAdded(index, h) */\n      mload(0x40)\n      tag_80\n      swap3\n      swap2\n      swap1\n      tag_81\n      jump\t// in\n    tag_80:\n      mload(0x40)\n      dup1\n      swap2\n      sub\n      swap1\n      log1\n        /* \"contracts/SimpleBlockchain.sol\":1449:1454  index */\n      dup5\n        /* \"contracts/SimpleBlockchain.sol\":1442:1454  return index */\n      swap6\n      pop\n      pop\n      pop\n      pop\n      pop\n      pop\n        /* \"contracts/SimpleBlockchain.sol\":720:1462  function _addBlock() internal returns (uint256) {... */\n      swap1\n      jump\t// out\n    tag_79:\n      pop\n      dup1\n      sload\n      0x00\n      dup3\n      sstore\n      0x04\n      mul\n      swap1\n      0x00\n      mstore\n      keccak256(0x00, 0x20)\n      swap1\n      dup2\n      add\n      swap1\n      tag_83\n      swap2\n      swap1\n      tag_84\n      jump\t// in\n    tag_83:\n      pop\n      jump\t// out\n    tag_84:\n    tag_85:\n      dup1\n      dup3\n      gt\n      iszero\n      tag_86\n      jumpi\n      0x00\n      0x00\n      dup3\n      add\n      exp(0x0100, 0x00)\n      dup2\n      sload\n      swap1\n      0xffffffffffffffffffffffffffffffffffffffff\n      mul\n      not\n      and\n      swap1\n      sstore\n      0x01\n      dup3\n      add\n      exp(0x0100, 0x00)\n      dup2\n      sload\n      swap1\n      0xffffffffffffffffffffffffffffffffffffffff\n      mul\n      not\n      and\n      swap1\n      sstore\n      0x02\n      dup3\n      add\n      0x00\n      swap1\n      sstore\n      0x03\n      dup3\n      add\n      0x00\n      swap1\n      sstore\n      pop\n      0x04\n      add\n      jump(tag_85)\n    tag_86:\n      pop\n      swap1\n      jump\t// out\n        /* \"#utility.yul\":88:205   */\n    tag_88:\n        /* \"#utility.yul\":197:198   */\n      0x00\n        /* \"#utility.yul\":194:195   */\n      0x00\n        /* \"#utility.yul\":187:199   */\n      revert\n        /* \"#utility.yul\":334:411   */\n    tag_90:\n        /* \"#utility.yul\":371:378   */\n      0x00\n        /* \"#utility.yul\":400:405   */\n      dup2\n        /* \"#utility.yul\":389:405   */\n      swap1\n      pop\n        /* \"#utility.yul\":334:411   */\n      swap2\n      swap1\n      pop\n      jump\t// out\n        /* \"#utility.yul\":417:539   */\n    tag_91:\n        /* \"#utility.yul\":490:514   */\n      tag_115\n        /* \"#utility.yul\":508:513   */\n      dup2\n        /* \"#utility.yul\":490:514   */\n      tag_90\n      jump\t// in\n    tag_115:\n        /* \"#utility.yul\":483:488   */\n      dup2\n        /* \"#utility.yul\":480:515   */\n      eq\n        /* \"#utility.yul\":470:533   */\n      tag_116\n      jumpi\n        /* \"#utility.yul\":529:530   */\n      0x00\n        /* \"#utility.yul\":526:527   */\n      0x00\n        /* \"#utility.yul\":519:531   */\n      revert\n        /* \"#utility.yul\":470:533   */\n    tag_116:\n        /* \"#utility.yul\":417:539   */\n      pop\n      jump\t// out\n        /* \"#utility.yul\":545:684   */\n    tag_92:\n        /* \"#utility.yul\":591:596   */\n      0x00\n        /* \"#utility.yul\":629:635   */\n      dup2\n        /* \"#utility.yul\":616:636   */\n      calldataload\n        /* \"#utility.yul\":607:636   */\n      swap1\n      pop\n        /* \"#utility.yul\":645:678   */\n      tag_118\n        /* \"#utility.yul\":672:677   */\n      dup2\n        /* \"#utility.yul\":645:678   */\n      tag_91\n      jump\t// in\n    tag_118:\n        /* \"#utility.yul\":545:684   */\n      swap3\n      swap2\n      pop\n      pop\n      jump\t// out\n        /* \"#utility.yul\":690:1019   */\n    tag_14:\n        /* \"#utility.yul\":749:755   */\n      0x00\n        /* \"#utility.yul\":798:800   */\n      0x20\n        /* \"#utility.yul\":786:795   */\n      dup3\n        /* \"#utility.yul\":777:784   */\n      dup5\n        /* \"#utility.yul\":773:796   */\n      sub\n        /* \"#utility.yul\":769:801   */\n      slt\n        /* \"#utility.yul\":766:885   */\n      iszero\n      tag_120\n      jumpi\n        /* \"#utility.yul\":804:883   */\n      tag_121\n      tag_88\n      jump\t// in\n    tag_121:\n        /* \"#utility.yul\":766:885   */\n    tag_120:\n        /* \"#utility.yul\":924:925   */\n      0x00\n        /* \"#utility.yul\":949:1002   */\n      tag_122\n        /* \"#utility.yul\":994:1001   */\n      dup5\n        /* \"#utility.yul\":985:991   */\n      dup3\n        /* \"#utility.yul\":974:983   */\n      dup6\n        /* \"#utility.yul\":970:992   */\n      add\n        /* \"#utility.yul\":949:1002   */\n      tag_92\n      jump\t// in\n    tag_122:\n        /* \"#utility.yul\":939:1002   */\n      swap2\n      pop\n        /* \"#utility.yul\":895:1012   */\n      pop\n        /* \"#utility.yul\":690:1019   */\n      swap3\n      swap2\n      pop\n      pop\n      jump\t// out\n        /* \"#utility.yul\":1025:1143   */\n    tag_93:\n        /* \"#utility.yul\":1112:1136   */\n      tag_124\n        /* \"#utility.yul\":1130:1135   */\n      dup2\n        /* \"#utility.yul\":1112:1136   */\n      tag_90\n      jump\t// in\n    tag_124:\n        /* \"#utility.yul\":1107:1110   */\n      dup3\n        /* \"#utility.yul\":1100:1137   */\n      mstore\n        /* \"#utility.yul\":1025:1143   */\n      pop\n      pop\n      jump\t// out\n        /* \"#utility.yul\":1149:1226   */\n    tag_94:\n        /* \"#utility.yul\":1186:1193   */\n      0x00\n        /* \"#utility.yul\":1215:1220   */\n      dup2\n        /* \"#utility.yul\":1204:1220   */\n      swap1\n      pop\n        /* \"#utility.yul\":1149:1226   */\n      swap2\n      swap1\n      pop\n      jump\t// out\n        /* \"#utility.yul\":1232:1350   */\n    tag_95:\n        /* \"#utility.yul\":1319:1343   */\n      tag_127\n        /* \"#utility.yul\":1337:1342   */\n      dup2\n        /* \"#utility.yul\":1319:1343   */\n      tag_94\n      jump\t// in\n    tag_127:\n        /* \"#utility.yul\":1314:1317   */\n      dup3\n        /* \"#utility.yul\":1307:1344   */\n      mstore\n        /* \"#utility.yul\":1232:1350   */\n      pop\n      pop\n      jump\t// out\n        /* \"#utility.yul\":1356:2020   */\n    tag_17:\n        /* \"#utility.yul\":1561:1565   */\n      0x00\n        /* \"#utility.yul\":1599:1602   */\n      0xa0\n        /* \"#utility.yul\":1588:1597   */\n      dup3\n        /* \"#utility.yul\":1584:1603   */\n      add\n        /* \"#utility.yul\":1576:1603   */\n      swap1\n      pop\n        /* \"#utility.yul\":1613:1684   */\n      tag_129\n        /* \"#utility.yul\":1681:1682   */\n      0x00\n        /* \"#utility.yul\":1670:1679   */\n      dup4\n        /* \"#utility.yul\":1666:1683   */\n      add\n        /* \"#utility.yul\":1657:1663   */\n      dup9\n        /* \"#utility.yul\":1613:1684   */\n      tag_93\n      jump\t// in\n    tag_129:\n        /* \"#utility.yul\":1694:1766   */\n      tag_130\n        /* \"#utility.yul\":1762:1764   */\n      0x20\n        /* \"#utility.yul\":1751:1760   */\n      dup4\n        /* \"#utility.yul\":1747:1765   */\n      add\n        /* \"#utility.yul\":1738:1744   */\n      dup8\n        /* \"#utility.yul\":1694:1766   */\n      tag_93\n      jump\t// in\n    tag_130:\n        /* \"#utility.yul\":1776:1848   */\n      tag_131\n        /* \"#utility.yul\":1844:1846   */\n      0x40\n        /* \"#utility.yul\":1833:1842   */\n      dup4\n        /* \"#utility.yul\":1829:1847   */\n      add\n        /* \"#utility.yul\":1820:1826   */\n      dup7\n        /* \"#utility.yul\":1776:1848   */\n      tag_95\n      jump\t// in\n    tag_131:\n        /* \"#utility.yul\":1858:1930   */\n      tag_132\n        /* \"#utility.yul\":1926:1928   */\n      0x60\n        /* \"#utility.yul\":1915:1924   */\n      dup4\n        /* \"#utility.yul\":1911:1929   */\n      add\n        /* \"#utility.yul\":1902:1908   */\n      dup6\n        /* \"#utility.yul\":1858:1930   */\n      tag_95\n      jump\t// in\n    tag_132:\n        /* \"#utility.yul\":1940:2013   */\n      tag_133\n        /* \"#utility.yul\":2008:2011   */\n      0x80\n        /* \"#utility.yul\":1997:2006   */\n      dup4\n        /* \"#utility.yul\":1993:2012   */\n      add\n        /* \"#utility.yul\":1984:1990   */\n      dup5\n        /* \"#utility.yul\":1940:2013   */\n      tag_93\n      jump\t// in\n    tag_133:\n        /* \"#utility.yul\":1356:2020   */\n      swap7\n      swap6\n      pop\n      pop\n      pop\n      pop\n      pop\n      pop\n      jump\t// out\n        /* \"#utility.yul\":2026:2248   */\n    tag_21:\n        /* \"#utility.yul\":2119:2123   */\n      0x00\n        /* \"#utility.yul\":2157:2159   */\n      0x20\n        /* \"#utility.yul\":2146:2155   */\n      dup3\n        /* \"#utility.yul\":2142:2160   */\n      add\n        /* \"#utility.yul\":2134:2160   */\n      swap1\n      pop\n        /* \"#utility.yul\":2170:2241   */\n      tag_135\n        /* \"#utility.yul\":2238:2239   */\n      0x00\n        /* \"#utility.yul\":2227:2236   */\n      dup4\n        /* \"#utility.yul\":2223:2240   */\n      add\n        /* \"#utility.yul\":2214:2220   */\n      dup5\n        /* \"#utility.yul\":2170:2241   */\n      tag_93\n      jump\t// in\n    tag_135:\n        /* \"#utility.yul\":2026:2248   */\n      swap3\n      swap2\n      pop\n      pop\n      jump\t// out\n        /* \"#utility.yul\":2254:2728   */\n    tag_27:\n        /* \"#utility.yul\":2322:2328   */\n      0x00\n        /* \"#utility.yul\":2330:2336   */\n      0x00\n        /* \"#utility.yul\":2379:2381   */\n      0x40\n        /* \"#utility.yul\":2367:2376   */\n      dup4\n        /* \"#utility.yul\":2358:2365   */\n      dup6\n        /* \"#utility.yul\":2354:2377   */\n      sub\n        /* \"#utility.yul\":2350:2382   */\n      slt\n        /* \"#utility.yul\":2347:2466   */\n      iszero\n      tag_137\n      jumpi\n        /* \"#utility.yul\":2385:2464   */\n      tag_138\n      tag_88\n      jump\t// in\n    tag_138:\n        /* \"#utility.yul\":2347:2466   */\n    tag_137:\n        /* \"#utility.yul\":2505:2506   */\n      0x00\n        /* \"#utility.yul\":2530:2583   */\n      tag_139\n        /* \"#utility.yul\":2575:2582   */\n      dup6\n        /* \"#utility.yul\":2566:2572   */\n      dup3\n        /* \"#utility.yul\":2555:2564   */\n      dup7\n        /* \"#utility.yul\":2551:2573   */\n      add\n        /* \"#utility.yul\":2530:2583   */\n      tag_92\n      jump\t// in\n    tag_139:\n        /* \"#utility.yul\":2520:2583   */\n      swap3\n      pop\n        /* \"#utility.yul\":2476:2593   */\n      pop\n        /* \"#utility.yul\":2632:2634   */\n      0x20\n        /* \"#utility.yul\":2658:2711   */\n      tag_140\n        /* \"#utility.yul\":2703:2710   */\n      dup6\n        /* \"#utility.yul\":2694:2700   */\n      dup3\n        /* \"#utility.yul\":2683:2692   */\n      dup7\n        /* \"#utility.yul\":2679:2701   */\n      add\n        /* \"#utility.yul\":2658:2711   */\n      tag_92\n      jump\t// in\n    tag_140:\n        /* \"#utility.yul\":2648:2711   */\n      swap2\n      pop\n        /* \"#utility.yul\":2603:2721   */\n      pop\n        /* \"#utility.yul\":2254:2728   */\n      swap3\n      pop\n      swap3\n      swap1\n      pop\n      jump\t// out\n        /* \"#utility.yul\":2734:2860   */\n    tag_96:\n        /* \"#utility.yul\":2771:2778   */\n      0x00\n        /* \"#utility.yul\":2811:2853   */\n      0xffffffffffffffffffffffffffffffffffffffff\n        /* \"#utility.yul\":2804:2809   */\n      dup3\n        /* \"#utility.yul\":2800:2854   */\n      and\n        /* \"#utility.yul\":2789:2854   */\n      swap1\n      pop\n        /* \"#utility.yul\":2734:2860   */\n      swap2\n      swap1\n      pop\n      jump\t// out\n        /* \"#utility.yul\":2866:2962   */\n    tag_97:\n        /* \"#utility.yul\":2903:2910   */\n      0x00\n        /* \"#utility.yul\":2932:2956   */\n      tag_143\n        /* \"#utility.yul\":2950:2955   */\n      dup3\n        /* \"#utility.yul\":2932:2956   */\n      tag_96\n      jump\t// in\n    tag_143:\n        /* \"#utility.yul\":2921:2956   */\n      swap1\n      pop\n        /* \"#utility.yul\":2866:2962   */\n      swap2\n      swap1\n      pop\n      jump\t// out\n        /* \"#utility.yul\":2968:3086   */\n    tag_98:\n        /* \"#utility.yul\":3055:3079   */\n      tag_145\n        /* \"#utility.yul\":3073:3078   */\n      dup2\n        /* \"#utility.yul\":3055:3079   */\n      tag_97\n      jump\t// in\n    tag_145:\n        /* \"#utility.yul\":3050:3053   */\n      dup3\n        /* \"#utility.yul\":3043:3080   */\n      mstore\n        /* \"#utility.yul\":2968:3086   */\n      pop\n      pop\n      jump\t// out\n        /* \"#utility.yul\":3092:3645   */\n    tag_30:\n        /* \"#utility.yul\":3269:3273   */\n      0x00\n        /* \"#utility.yul\":3307:3310   */\n      0x80\n        /* \"#utility.yul\":3296:3305   */\n      dup3\n        /* \"#utility.yul\":3292:3311   */\n      add\n        /* \"#utility.yul\":3284:3311   */\n      swap1\n      pop\n        /* \"#utility.yul\":3321:3392   */\n      tag_147\n        /* \"#utility.yul\":3389:3390   */\n      0x00\n        /* \"#utility.yul\":3378:3387   */\n      dup4\n        /* \"#utility.yul\":3374:3391   */\n      add\n        /* \"#utility.yul\":3365:3371   */\n      dup8\n        /* \"#utility.yul\":3321:3392   */\n      tag_98\n      jump\t// in\n    tag_147:\n        /* \"#utility.yul\":3402:3474   */\n      tag_148\n        /* \"#utility.yul\":3470:3472   */\n      0x20\n        /* \"#utility.yul\":3459:3468   */\n      dup4\n        /* \"#utility.yul\":3455:3473   */\n      add\n        /* \"#utility.yul\":3446:3452   */\n      dup7\n        /* \"#utility.yul\":3402:3474   */\n      tag_98\n      jump\t// in\n    tag_148:\n        /* \"#utility.yul\":3484:3556   */\n      tag_149\n        /* \"#utility.yul\":3552:3554   */\n      0x40\n        /* \"#utility.yul\":3541:3550   */\n      dup4\n        /* \"#utility.yul\":3537:3555   */\n      add\n        /* \"#utility.yul\":3528:3534   */\n      dup6\n        /* \"#utility.yul\":3484:3556   */\n      tag_93\n      jump\t// in\n    tag_149:\n        /* \"#utility.yul\":3566:3638   */\n      tag_150\n        /* \"#utility.yul\":3634:3636   */\n      0x60\n        /* \"#utility.yul\":3623:3632   */\n      dup4\n        /* \"#utility.yul\":3619:3637   */\n      add\n        /* \"#utility.yul\":3610:3616   */\n      dup5\n        /* \"#utility.yul\":3566:3638   */\n      tag_93\n      jump\t// in\n    tag_150:\n        /* \"#utility.yul\":3092:3645   */\n      swap6\n      swap5\n      pop\n      pop\n      pop\n      pop\n      pop\n      jump\t// out\n        /* \"#utility.yul\":3651:3773   */\n    tag_99:\n        /* \"#utility.yul\":3724:3748   */\n      tag_152\n        /* \"#utility.yul\":3742:3747   */\n      dup2\n        /* \"#utility.yul\":3724:3748   */\n      tag_97\n      jump\t// in\n    tag_152:\n        /* \"#utility.yul\":3717:3722   */\n      dup2\n        /* \"#utility.yul\":3714:3749   */\n      eq\n        /* \"#utility.yul\":3704:3767   */\n      tag_153\n      jumpi\n        /* \"#utility.yul\":3763:3764   */\n      0x00\n        /* \"#utility.yul\":3760:3761   */\n      0x00\n        /* \"#utility.yul\":3753:3765   */\n      revert\n        /* \"#utility.yul\":3704:3767   */\n    tag_153:\n        /* \"#utility.yul\":3651:3773   */\n      pop\n      jump\t// out\n        /* \"#utility.yul\":3779:3918   */\n    tag_100:\n        /* \"#utility.yul\":3825:3830   */\n      0x00\n        /* \"#utility.yul\":3863:3869   */\n      dup2\n        /* \"#utility.yul\":3850:3870   */\n      calldataload\n        /* \"#utility.yul\":3841:3870   */\n      swap1\n      pop\n        /* \"#utility.yul\":3879:3912   */\n      tag_155\n        /* \"#utility.yul\":3906:3911   */\n      dup2\n        /* \"#utility.yul\":3879:3912   */\n      tag_99\n      jump\t// in\n    tag_155:\n        /* \"#utility.yul\":3779:3918   */\n      swap3\n      swap2\n      pop\n      pop\n      jump\t// out\n        /* \"#utility.yul\":3924:4398   */\n    tag_36:\n        /* \"#utility.yul\":3992:3998   */\n      0x00\n        /* \"#utility.yul\":4000:4006   */\n      0x00\n        /* \"#utility.yul\":4049:4051   */\n      0x40\n        /* \"#utility.yul\":4037:4046   */\n      dup4\n        /* \"#utility.yul\":4028:4035   */\n      dup6\n        /* \"#utility.yul\":4024:4047   */\n      sub\n        /* \"#utility.yul\":4020:4052   */\n      slt\n        /* \"#utility.yul\":4017:4136   */\n      iszero\n      tag_157\n      jumpi\n        /* \"#utility.yul\":4055:4134   */\n      tag_158\n      tag_88\n      jump\t// in\n    tag_158:\n        /* \"#utility.yul\":4017:4136   */\n    tag_157:\n        /* \"#utility.yul\":4175:4176   */\n      0x00\n        /* \"#utility.yul\":4200:4253   */\n      tag_159\n        /* \"#utility.yul\":4245:4252   */\n      dup6\n        /* \"#utility.yul\":4236:4242   */\n      dup3\n        /* \"#utility.yul\":4225:4234   */\n      dup7\n        /* \"#utility.yul\":4221:4243   */\n      add\n        /* \"#utility.yul\":4200:4253   */\n      tag_100\n      jump\t// in\n    tag_159:\n        /* \"#utility.yul\":4190:4253   */\n      swap3\n      pop\n        /* \"#utility.yul\":4146:4263   */\n      pop\n        /* \"#utility.yul\":4302:4304   */\n      0x20\n        /* \"#utility.yul\":4328:4381   */\n      tag_160\n        /* \"#utility.yul\":4373:4380   */\n      dup6\n        /* \"#utility.yul\":4364:4370   */\n      dup3\n        /* \"#utility.yul\":4353:4362   */\n      dup7\n        /* \"#utility.yul\":4349:4371   */\n      add\n        /* \"#utility.yul\":4328:4381   */\n      tag_92\n      jump\t// in\n    tag_160:\n        /* \"#utility.yul\":4318:4381   */\n      swap2\n      pop\n        /* \"#utility.yul\":4273:4391   */\n      pop\n        /* \"#utility.yul\":3924:4398   */\n      swap3\n      pop\n      swap3\n      swap1\n      pop\n      jump\t// out\n        /* \"#utility.yul\":4404:4957   */\n    tag_46:\n        /* \"#utility.yul\":4581:4585   */\n      0x00\n        /* \"#utility.yul\":4619:4622   */\n      0x80\n        /* \"#utility.yul\":4608:4617   */\n      dup3\n        /* \"#utility.yul\":4604:4623   */\n      add\n        /* \"#utility.yul\":4596:4623   */\n      swap1\n      pop\n        /* \"#utility.yul\":4633:4704   */\n      tag_162\n        /* \"#utility.yul\":4701:4702   */\n      0x00\n        /* \"#utility.yul\":4690:4699   */\n      dup4\n        /* \"#utility.yul\":4686:4703   */\n      add\n        /* \"#utility.yul\":4677:4683   */\n      dup8\n        /* \"#utility.yul\":4633:4704   */\n      tag_93\n      jump\t// in\n    tag_162:\n        /* \"#utility.yul\":4714:4786   */\n      tag_163\n        /* \"#utility.yul\":4782:4784   */\n      0x20\n        /* \"#utility.yul\":4771:4780   */\n      dup4\n        /* \"#utility.yul\":4767:4785   */\n      add\n        /* \"#utility.yul\":4758:4764   */\n      dup7\n        /* \"#utility.yul\":4714:4786   */\n      tag_93\n      jump\t// in\n    tag_163:\n        /* \"#utility.yul\":4796:4868   */\n      tag_164\n        /* \"#utility.yul\":4864:4866   */\n      0x40\n        /* \"#utility.yul\":4853:4862   */\n      dup4\n        /* \"#utility.yul\":4849:4867   */\n      add\n        /* \"#utility.yul\":4840:4846   */\n      dup6\n        /* \"#utility.yul\":4796:4868   */\n      tag_95\n      jump\t// in\n    tag_164:\n        /* \"#utility.yul\":4878:4950   */\n      tag_165\n        /* \"#utility.yul\":4946:4948   */\n      0x60\n        /* \"#utility.yul\":4935:4944   */\n      dup4\n        /* \"#utility.yul\":4931:4949   */\n      add\n        /* \"#utility.yul\":4922:4928   */\n      dup5\n        /* \"#utility.yul\":4878:4950   */\n      tag_95\n      jump\t// in\n    tag_165:\n        /* \"#utility.yul\":4404:4957   */\n      swap6\n      swap5\n      pop\n      pop\n      pop\n      pop\n      pop\n      jump\t// out\n        /* \"#utility.yul\":4963:5143   */\n    tag_52:\n        /* \"#utility.yul\":5011:5088   */\n      0x4e487b7100000000000000000000000000000000000000000000000000000000\n        /* \"#utility.yul\":5008:5009   */\n      0x00\n        /* \"#utility.yul\":5001:5089   */\n      mstore\n        /* \"#utility.yul\":5108:5112   */\n      0x32\n        /* \"#utility.yul\":5105:5106   */\n      0x04\n        /* \"#utility.yul\":5098:5113   */\n      mstore\n        /* \"#utility.yul\":5132:5136   */\n      0x24\n        /* \"#utility.yul\":5129:5130   */\n      0x00\n        /* \"#utility.yul\":5122:5137   */\n      revert\n        /* \"#utility.yul\":5149:5318   */\n    tag_101:\n        /* \"#utility.yul\":5233:5244   */\n      0x00\n        /* \"#utility.yul\":5267:5273   */\n      dup3\n        /* \"#utility.yul\":5262:5265   */\n      dup3\n        /* \"#utility.yul\":5255:5274   */\n      mstore\n        /* \"#utility.yul\":5307:5311   */\n      0x20\n        /* \"#utility.yul\":5302:5305   */\n      dup3\n        /* \"#utility.yul\":5298:5312   */\n      add\n        /* \"#utility.yul\":5283:5312   */\n      swap1\n      pop\n        /* \"#utility.yul\":5149:5318   */\n      swap3\n      swap2\n      pop\n      pop\n      jump\t// out\n        /* \"#utility.yul\":5324:5497   */\n    tag_102:\n        /* \"#utility.yul\":5464:5489   */\n      0x4e6f2070656e64696e67207472616e73616374696f6e73000000000000000000\n        /* \"#utility.yul\":5460:5461   */\n      0x00\n        /* \"#utility.yul\":5452:5458   */\n      dup3\n        /* \"#utility.yul\":5448:5462   */\n      add\n        /* \"#utility.yul\":5441:5490   */\n      mstore\n        /* \"#utility.yul\":5324:5497   */\n      pop\n      jump\t// out\n        /* \"#utility.yul\":5503:5869   */\n    tag_103:\n        /* \"#utility.yul\":5645:5648   */\n      0x00\n        /* \"#utility.yul\":5666:5733   */\n      tag_170\n        /* \"#utility.yul\":5730:5732   */\n      0x17\n        /* \"#utility.yul\":5725:5728   */\n      dup4\n        /* \"#utility.yul\":5666:5733   */\n      tag_101\n      jump\t// in\n    tag_170:\n        /* \"#utility.yul\":5659:5733   */\n      swap2\n      pop\n        /* \"#utility.yul\":5742:5835   */\n      tag_171\n        /* \"#utility.yul\":5831:5834   */\n      dup3\n        /* \"#utility.yul\":5742:5835   */\n      tag_102\n      jump\t// in\n    tag_171:\n        /* \"#utility.yul\":5860:5862   */\n      0x20\n        /* \"#utility.yul\":5855:5858   */\n      dup3\n        /* \"#utility.yul\":5851:5863   */\n      add\n        /* \"#utility.yul\":5844:5863   */\n      swap1\n      pop\n        /* \"#utility.yul\":5503:5869   */\n      swap2\n      swap1\n      pop\n      jump\t// out\n        /* \"#utility.yul\":5875:6294   */\n    tag_57:\n        /* \"#utility.yul\":6041:6045   */\n      0x00\n        /* \"#utility.yul\":6079:6081   */\n      0x20\n        /* \"#utility.yul\":6068:6077   */\n      dup3\n        /* \"#utility.yul\":6064:6082   */\n      add\n        /* \"#utility.yul\":6056:6082   */\n      swap1\n      pop\n        /* \"#utility.yul\":6128:6137   */\n      dup2\n        /* \"#utility.yul\":6122:6126   */\n      dup2\n        /* \"#utility.yul\":6118:6138   */\n      sub\n        /* \"#utility.yul\":6114:6115   */\n      0x00\n        /* \"#utility.yul\":6103:6112   */\n      dup4\n        /* \"#utility.yul\":6099:6116   */\n      add\n        /* \"#utility.yul\":6092:6139   */\n      mstore\n        /* \"#utility.yul\":6156:6287   */\n      tag_173\n        /* \"#utility.yul\":6282:6286   */\n      dup2\n        /* \"#utility.yul\":6156:6287   */\n      tag_103\n      jump\t// in\n    tag_173:\n        /* \"#utility.yul\":6148:6287   */\n      swap1\n      pop\n        /* \"#utility.yul\":5875:6294   */\n      swap2\n      swap1\n      pop\n      jump\t// out\n        /* \"#utility.yul\":6300:6742   */\n    tag_63:\n        /* \"#utility.yul\":6449:6453   */\n      0x00\n        /* \"#utility.yul\":6487:6489   */\n      0x60\n        /* \"#utility.yul\":6476:6485   */\n      dup3\n        /* \"#utility.yul\":6472:6490   */\n      add\n        /* \"#utility.yul\":6464:6490   */\n      swap1\n      pop\n        /* \"#utility.yul\":6500:6571   */\n      tag_175\n        /* \"#utility.yul\":6568:6569   */\n      0x00\n        /* \"#utility.yul\":6557:6566   */\n      dup4\n        /* \"#utility.yul\":6553:6570   */\n      add\n        /* \"#utility.yul\":6544:6550   */\n      dup7\n        /* \"#utility.yul\":6500:6571   */\n      tag_98\n      jump\t// in\n    tag_175:\n        /* \"#utility.yul\":6581:6653   */\n      tag_176\n        /* \"#utility.yul\":6649:6651   */\n      0x20\n        /* \"#utility.yul\":6638:6647   */\n      dup4\n        /* \"#utility.yul\":6634:6652   */\n      add\n        /* \"#utility.yul\":6625:6631   */\n      dup6\n        /* \"#utility.yul\":6581:6653   */\n      tag_98\n      jump\t// in\n    tag_176:\n        /* \"#utility.yul\":6663:6735   */\n      tag_177\n        /* \"#utility.yul\":6731:6733   */\n      0x40\n        /* \"#utility.yul\":6720:6729   */\n      dup4\n        /* \"#utility.yul\":6716:6734   */\n      add\n        /* \"#utility.yul\":6707:6713   */\n      dup5\n        /* \"#utility.yul\":6663:6735   */\n      tag_93\n      jump\t// in\n    tag_177:\n        /* \"#utility.yul\":6300:6742   */\n      swap5\n      swap4\n      pop\n      pop\n      pop\n      pop\n      jump\t// out\n        /* \"#utility.yul\":6748:6928   */\n    tag_104:\n        /* \"#utility.yul\":6796:6873   */\n      0x4e487b7100000000000000000000000000000000000000000000000000000000\n        /* \"#utility.yul\":6793:6794   */\n      0x00\n        /* \"#utility.yul\":6786:6874   */\n      mstore\n        /* \"#utility.yul\":6893:6897   */\n      0x11\n        /* \"#utility.yul\":6890:6891   */\n      0x04\n        /* \"#utility.yul\":6883:6898   */\n      mstore\n        /* \"#utility.yul\":6917:6921   */\n      0x24\n        /* \"#utility.yul\":6914:6915   */\n      0x00\n        /* \"#utility.yul\":6907:6922   */\n      revert\n        /* \"#utility.yul\":6934:7125   */\n    tag_68:\n        /* \"#utility.yul\":6974:6977   */\n      0x00\n        /* \"#utility.yul\":6993:7013   */\n      tag_180\n        /* \"#utility.yul\":7011:7012   */\n      dup3\n        /* \"#utility.yul\":6993:7013   */\n      tag_90\n      jump\t// in\n    tag_180:\n        /* \"#utility.yul\":6988:7013   */\n      swap2\n      pop\n        /* \"#utility.yul\":7027:7047   */\n      tag_181\n        /* \"#utility.yul\":7045:7046   */\n      dup4\n        /* \"#utility.yul\":7027:7047   */\n      tag_90\n      jump\t// in\n    tag_181:\n        /* \"#utility.yul\":7022:7047   */\n      swap3\n      pop\n        /* \"#utility.yul\":7070:7071   */\n      dup3\n        /* \"#utility.yul\":7067:7068   */\n      dup3\n        /* \"#utility.yul\":7063:7072   */\n      add\n        /* \"#utility.yul\":7056:7072   */\n      swap1\n      pop\n        /* \"#utility.yul\":7091:7094   */\n      dup1\n        /* \"#utility.yul\":7088:7089   */\n      dup3\n        /* \"#utility.yul\":7085:7095   */\n      gt\n        /* \"#utility.yul\":7082:7118   */\n      iszero\n      tag_182\n      jumpi\n        /* \"#utility.yul\":7098:7116   */\n      tag_183\n      tag_104\n      jump\t// in\n    tag_183:\n        /* \"#utility.yul\":7082:7118   */\n    tag_182:\n        /* \"#utility.yul\":6934:7125   */\n      swap3\n      swap2\n      pop\n      pop\n      jump\t// out\n        /* \"#utility.yul\":7131:7210   */\n    tag_105:\n        /* \"#utility.yul\":7170:7177   */\n      0x00\n        /* \"#utility.yul\":7199:7204   */\n      dup2\n        /* \"#utility.yul\":7188:7204   */\n      swap1\n      pop\n        /* \"#utility.yul\":7131:7210   */\n      swap2\n      swap1\n      pop\n      jump\t// out\n        /* \"#utility.yul\":7216:7373   */\n    tag_106:\n        /* \"#utility.yul\":7321:7366   */\n      tag_186\n        /* \"#utility.yul\":7341:7365   */\n      tag_187\n        /* \"#utility.yul\":7359:7364   */\n      dup3\n        /* \"#utility.yul\":7341:7365   */\n      tag_90\n      jump\t// in\n    tag_187:\n        /* \"#utility.yul\":7321:7366   */\n      tag_105\n      jump\t// in\n    tag_186:\n        /* \"#utility.yul\":7316:7319   */\n      dup3\n        /* \"#utility.yul\":7309:7367   */\n      mstore\n        /* \"#utility.yul\":7216:7373   */\n      pop\n      pop\n      jump\t// out\n        /* \"#utility.yul\":7379:7458   */\n    tag_107:\n        /* \"#utility.yul\":7418:7425   */\n      0x00\n        /* \"#utility.yul\":7447:7452   */\n      dup2\n        /* \"#utility.yul\":7436:7452   */\n      swap1\n      pop\n        /* \"#utility.yul\":7379:7458   */\n      swap2\n      swap1\n      pop\n      jump\t// out\n        /* \"#utility.yul\":7464:7621   */\n    tag_108:\n        /* \"#utility.yul\":7569:7614   */\n      tag_190\n        /* \"#utility.yul\":7589:7613   */\n      tag_191\n        /* \"#utility.yul\":7607:7612   */\n      dup3\n        /* \"#utility.yul\":7589:7613   */\n      tag_94\n      jump\t// in\n    tag_191:\n        /* \"#utility.yul\":7569:7614   */\n      tag_107\n      jump\t// in\n    tag_190:\n        /* \"#utility.yul\":7564:7567   */\n      dup3\n        /* \"#utility.yul\":7557:7615   */\n      mstore\n        /* \"#utility.yul\":7464:7621   */\n      pop\n      pop\n      jump\t// out\n        /* \"#utility.yul\":7627:8306   */\n    tag_70:\n        /* \"#utility.yul\":7823:7826   */\n      0x00\n        /* \"#utility.yul\":7838:7913   */\n      tag_193\n        /* \"#utility.yul\":7909:7912   */\n      dup3\n        /* \"#utility.yul\":7900:7906   */\n      dup8\n        /* \"#utility.yul\":7838:7913   */\n      tag_106\n      jump\t// in\n    tag_193:\n        /* \"#utility.yul\":7938:7940   */\n      0x20\n        /* \"#utility.yul\":7933:7936   */\n      dup3\n        /* \"#utility.yul\":7929:7941   */\n      add\n        /* \"#utility.yul\":7922:7941   */\n      swap2\n      pop\n        /* \"#utility.yul\":7951:8026   */\n      tag_194\n        /* \"#utility.yul\":8022:8025   */\n      dup3\n        /* \"#utility.yul\":8013:8019   */\n      dup7\n        /* \"#utility.yul\":7951:8026   */\n      tag_106\n      jump\t// in\n    tag_194:\n        /* \"#utility.yul\":8051:8053   */\n      0x20\n        /* \"#utility.yul\":8046:8049   */\n      dup3\n        /* \"#utility.yul\":8042:8054   */\n      add\n        /* \"#utility.yul\":8035:8054   */\n      swap2\n      pop\n        /* \"#utility.yul\":8064:8139   */\n      tag_195\n        /* \"#utility.yul\":8135:8138   */\n      dup3\n        /* \"#utility.yul\":8126:8132   */\n      dup6\n        /* \"#utility.yul\":8064:8139   */\n      tag_108\n      jump\t// in\n    tag_195:\n        /* \"#utility.yul\":8164:8166   */\n      0x20\n        /* \"#utility.yul\":8159:8162   */\n      dup3\n        /* \"#utility.yul\":8155:8167   */\n      add\n        /* \"#utility.yul\":8148:8167   */\n      swap2\n      pop\n        /* \"#utility.yul\":8177:8252   */\n      tag_196\n        /* \"#utility.yul\":8248:8251   */\n      dup3\n        /* \"#utility.yul\":8239:8245   */\n      dup5\n        /* \"#utility.yul\":8177:8252   */\n      tag_106\n      jump\t// in\n    tag_196:\n        /* \"#utility.yul\":8277:8279   */\n      0x20\n        /* \"#utility.yul\":8272:8275   */\n      dup3\n        /* \"#utility.yul\":8268:8280   */\n      add\n        /* \"#utility.yul\":8261:8280   */\n      swap2\n      pop\n        /* \"#utility.yul\":8297:8300   */\n      dup2\n        /* \"#utility.yul\":8290:8300   */\n      swap1\n      pop\n        /* \"#utility.yul\":7627:8306   */\n      swap6\n      swap5\n      pop\n      pop\n      pop\n      pop\n      pop\n      jump\t// out\n        /* \"#utility.yul\":8312:8644   */\n    tag_81:\n        /* \"#utility.yul\":8433:8437   */\n      0x00\n        /* \"#utility.yul\":8471:8473   */\n      0x40\n        /* \"#utility.yul\":8460:8469   */\n      dup3\n        /* \"#utility.yul\":8456:8474   */\n      add\n        /* \"#utility.yul\":8448:8474   */\n      swap1\n      pop\n        /* \"#utility.yul\":8484:8555   */\n      tag_198\n        /* \"#utility.yul\":8552:8553   */\n      0x00\n        /* \"#utility.yul\":8541:8550   */\n      dup4\n        /* \"#utility.yul\":8537:8554   */\n      add\n        /* \"#utility.yul\":8528:8534   */\n      dup6\n        /* \"#utility.yul\":8484:8555   */\n      tag_93\n      jump\t// in\n    tag_198:\n        /* \"#utility.yul\":8565:8637   */\n      tag_199\n        /* \"#utility.yul\":8633:8635   */\n      0x20\n        /* \"#utility.yul\":8622:8631   */\n      dup4\n        /* \"#utility.yul\":8618:8636   */\n      add\n        /* \"#utility.yul\":8609:8615   */\n      dup5\n        /* \"#utility.yul\":8565:8637   */\n      tag_95\n      jump\t// in\n    tag_199:\n        /* \"#utility.yul\":8312:8644   */\n      swap4\n      swap3\n      pop\n      pop\n      pop\n      jump\t// out\n\n    auxdata: 0xa264697066735822122067a5b9d63af05a8e5bf1cc3404c678b7048c71dc9131d9748e8d5851d13361f564736f6c634300081e0033\n}\n",
				"bytecode": {
					"linkReferences": {},
					"object": "608060405234801561000f575f5ffd5b5061001e61002460201b60201c565b50610460565b5f5f600180546100349190610325565b90505f4290505f5f5f60015481526020019081526020015f206004015490505f83838360028054905060405160200161007094939291906103a1565b6040516020818303038152906040528051906020012090505f5f5f8681526020019081526020015f20905084815f01819055508381600101819055508281600301819055508181600401819055505f5f90505b6002805490508110156102055781600201600282815481106100e8576100e76103ee565b5b905f5260205f209060040201908060018154018082558091505060019003905f5260205f2090600402015f909190919091505f82015f9054906101000a900473ffffffffffffffffffffffffffffffffffffffff16815f015f6101000a81548173ffffffffffffffffffffffffffffffffffffffff021916908373ffffffffffffffffffffffffffffffffffffffff160217905550600182015f9054906101000a900473ffffffffffffffffffffffffffffffffffffffff16816001015f6101000a81548173ffffffffffffffffffffffffffffffffffffffff021916908373ffffffffffffffffffffffffffffffffffffffff1602179055506002820154816002015560038201548160030155505080806001019150506100c3565b5060025f610213919061025e565b846001819055507f050523c6e97461ceaccc44540ab96e0c97be70813576164de6985b781dbbac19858360405161024b929190610439565b60405180910390a1849550505050505090565b5080545f8255600402905f5260205f209081019061027c919061027f565b50565b5b808211156102eb575f5f82015f6101000a81549073ffffffffffffffffffffffffffffffffffffffff0219169055600182015f6101000a81549073ffffffffffffffffffffffffffffffffffffffff0219169055600282015f9055600382015f905550600401610280565b5090565b5f819050919050565b7f4e487b71000000000000000000000000000000000000000000000000000000005f52601160045260245ffd5b5f61032f826102ef565b915061033a836102ef565b9250828201905080821115610352576103516102f8565b5b92915050565b5f819050919050565b61037261036d826102ef565b610358565b82525050565b5f819050919050565b5f819050919050565b61039b61039682610378565b610381565b82525050565b5f6103ac8287610361565b6020820191506103bc8286610361565b6020820191506103cc828561038a565b6020820191506103dc8284610361565b60208201915081905095945050505050565b7f4e487b71000000000000000000000000000000000000000000000000000000005f52603260045260245ffd5b610424816102ef565b82525050565b61043381610378565b82525050565b5f60408201905061044c5f83018561041b565b610459602083018461042a565b9392505050565b610c5d8061046d5f395ff3fe608060405234801561000f575f5ffd5b5060043610610086575f3560e01c806378a1ff8f1161005957806378a1ff8f1461012d57806384a372731461014b578063de2a62a514610167578063f25b3f991461019a57610086565b806304c075691461008a578063219ee89c146100be578063578f2aa0146100dc5780637303f6ce146100fa575b5f5ffd5b6100a4600480360381019061009f9190610812565b6101cd565b6040516100b5959493929190610864565b60405180910390f35b6100c6610214565b6040516100d391906108b5565b60405180910390f35b6100e461021d565b6040516100f191906108b5565b60405180910390f35b610114600480360381019061010f91906108ce565b610223565b604051610124949392919061094b565b60405180910390f35b6101356102be565b60405161014291906108b5565b60405180910390f35b610165600480360381019061016091906109b8565b610313565b005b610181600480360381019061017c9190610812565b61046c565b604051610191949392919061094b565b60405180910390f35b6101b460048036038101906101af9190610812565b6104e5565b6040516101c494939291906109f6565b60405180910390f35b5f5f5f5f5f5f5f5f8881526020019081526020015f209050805f01548160010154826003015483600401548460020180549050955095509550955095505091939590929450565b5f600154905090565b60015481565b5f5f5f5f5f5f5f8881526020019081526020015f20600201868154811061024d5761024c610a39565b5b905f5260205f2090600402019050805f015f9054906101000a900473ffffffffffffffffffffffffffffffffffffffff16816001015f9054906101000a900473ffffffffffffffffffffffffffffffffffffffff168260020154836003015494509450945094505092959194509250565b5f5f60028054905011610306576040517f08c379a00000000000000000000000000000000000000000000000000000000081526004016102fd90610ac0565b60405180910390fd5b61030e610510565b905090565b5f60405180608001604052803373ffffffffffffffffffffffffffffffffffffffff1681526020018473ffffffffffffffffffffffffffffffffffffffff168152602001838152602001428152509050600281908060018154018082558091505060019003905f5260205f2090600402015f909190919091505f820151815f015f6101000a81548173ffffffffffffffffffffffffffffffffffffffff021916908373ffffffffffffffffffffffffffffffffffffffff1602179055506020820151816001015f6101000a81548173ffffffffffffffffffffffffffffffffffffffff021916908373ffffffffffffffffffffffffffffffffffffffff160217905550604082015181600201556060820151816003015550507fa3f77c7251c1c7e67c7f892afa5ca0a98096c9119e947663f4a96852c743f43033848460405161045f93929190610ade565b60405180910390a1505050565b6002818154811061047b575f80fd5b905f5260205f2090600402015f91509050805f015f9054906101000a900473ffffffffffffffffffffffffffffffffffffffff1690806001015f9054906101000a900473ffffffffffffffffffffffffffffffffffffffff16908060020154908060030154905084565b5f602052805f5260405f205f91509050805f0154908060010154908060030154908060040154905084565b5f5f600180546105209190610b40565b90505f4290505f5f5f60015481526020019081526020015f206004015490505f83838360028054905060405160200161055c9493929190610bb3565b6040516020818303038152906040528051906020012090505f5f5f8681526020019081526020015f20905084815f01819055508381600101819055508281600301819055508181600401819055505f5f90505b6002805490508110156106f15781600201600282815481106105d4576105d3610a39565b5b905f5260205f209060040201908060018154018082558091505060019003905f5260205f2090600402015f909190919091505f82015f9054906101000a900473ffffffffffffffffffffffffffffffffffffffff16815f015f6101000a81548173ffffffffffffffffffffffffffffffffffffffff021916908373ffffffffffffffffffffffffffffffffffffffff160217905550600182015f9054906101000a900473ffffffffffffffffffffffffffffffffffffffff16816001015f6101000a81548173ffffffffffffffffffffffffffffffffffffffff021916908373ffffffffffffffffffffffffffffffffffffffff1602179055506002820154816002015560038201548160030155505080806001019150506105af565b5060025f6106ff919061074a565b846001819055507f050523c6e97461ceaccc44540ab96e0c97be70813576164de6985b781dbbac198583604051610737929190610c00565b60405180910390a1849550505050505090565b5080545f8255600402905f5260205f2090810190610768919061076b565b50565b5b808211156107d7575f5f82015f6101000a81549073ffffffffffffffffffffffffffffffffffffffff0219169055600182015f6101000a81549073ffffffffffffffffffffffffffffffffffffffff0219169055600282015f9055600382015f90555060040161076c565b5090565b5f5ffd5b5f819050919050565b6107f1816107df565b81146107fb575f5ffd5b50565b5f8135905061080c816107e8565b92915050565b5f60208284031215610827576108266107db565b5b5f610834848285016107fe565b91505092915050565b610846816107df565b82525050565b5f819050919050565b61085e8161084c565b82525050565b5f60a0820190506108775f83018861083d565b610884602083018761083d565b6108916040830186610855565b61089e6060830185610855565b6108ab608083018461083d565b9695505050505050565b5f6020820190506108c85f83018461083d565b92915050565b5f5f604083850312156108e4576108e36107db565b5b5f6108f1858286016107fe565b9250506020610902858286016107fe565b9150509250929050565b5f73ffffffffffffffffffffffffffffffffffffffff82169050919050565b5f6109358261090c565b9050919050565b6109458161092b565b82525050565b5f60808201905061095e5f83018761093c565b61096b602083018661093c565b610978604083018561083d565b610985606083018461083d565b95945050505050565b6109978161092b565b81146109a1575f5ffd5b50565b5f813590506109b28161098e565b92915050565b5f5f604083850312156109ce576109cd6107db565b5b5f6109db858286016109a4565b92505060206109ec858286016107fe565b9150509250929050565b5f608082019050610a095f83018761083d565b610a16602083018661083d565b610a236040830185610855565b610a306060830184610855565b95945050505050565b7f4e487b71000000000000000000000000000000000000000000000000000000005f52603260045260245ffd5b5f82825260208201905092915050565b7f4e6f2070656e64696e67207472616e73616374696f6e730000000000000000005f82015250565b5f610aaa601783610a66565b9150610ab582610a76565b602082019050919050565b5f6020820190508181035f830152610ad781610a9e565b9050919050565b5f606082019050610af15f83018661093c565b610afe602083018561093c565b610b0b604083018461083d565b949350505050565b7f4e487b71000000000000000000000000000000000000000000000000000000005f52601160045260245ffd5b5f610b4a826107df565b9150610b55836107df565b9250828201905080821115610b6d57610b6c610b13565b5b92915050565b5f819050919050565b610b8d610b88826107df565b610b73565b82525050565b5f819050919050565b610bad610ba88261084c565b610b93565b82525050565b5f610bbe8287610b7c565b602082019150610bce8286610b7c565b602082019150610bde8285610b9c565b602082019150610bee8284610b7c565b60208201915081905095945050505050565b5f604082019050610c135f83018561083d565b610c206020830184610855565b939250505056fea264697066735822122067a5b9d63af05a8e5bf1cc3404c678b7048c71dc9131d9748e8d5851d13361f564736f6c634300081e0033",
					"opcodes": "PUSH1 0x80 PUSH1 0x40 MSTORE CALLVALUE DUP1 ISZERO PUSH2 0xF JUMPI PUSH0 PUSH0 REVERT JUMPDEST POP PUSH2 0x1E PUSH2 0x24 PUSH1 0x20 SHL PUSH1 0x20 SHR JUMP JUMPDEST POP PUSH2 0x460 JUMP JUMPDEST PUSH0 PUSH0 PUSH1 0x1 DUP1 SLOAD PUSH2 0x34 SWAP2 SWAP1 PUSH2 0x325 JUMP JUMPDEST SWAP1 POP PUSH0 TIMESTAMP SWAP1 POP PUSH0 PUSH0 PUSH0 PUSH1 0x1 SLOAD DUP2 MSTORE PUSH1 0x20 ADD SWAP1 DUP2 MSTORE PUSH1 0x20 ADD PUSH0 KECCAK256 PUSH1 0x4 ADD SLOAD SWAP1 POP PUSH0 DUP4 DUP4 DUP4 PUSH1 0x2 DUP1 SLOAD SWAP1 POP PUSH1 0x40 MLOAD PUSH1 0x20 ADD PUSH2 0x70 SWAP5 SWAP4 SWAP3 SWAP2 SWAP1 PUSH2 0x3A1 JUMP JUMPDEST PUSH1 0x40 MLOAD PUSH1 0x20 DUP2 DUP4 SUB SUB DUP2 MSTORE SWAP1 PUSH1 0x40 MSTORE DUP1 MLOAD SWAP1 PUSH1 0x20 ADD KECCAK256 SWAP1 POP PUSH0 PUSH0 PUSH0 DUP7 DUP2 MSTORE PUSH1 0x20 ADD SWAP1 DUP2 MSTORE PUSH1 0x20 ADD PUSH0 KECCAK256 SWAP1 POP DUP5 DUP2 PUSH0 ADD DUP2 SWAP1 SSTORE POP DUP4 DUP2 PUSH1 0x1 ADD DUP2 SWAP1 SSTORE POP DUP3 DUP2 PUSH1 0x3 ADD DUP2 SWAP1 SSTORE POP DUP2 DUP2 PUSH1 0x4 ADD DUP2 SWAP1 SSTORE POP PUSH0 PUSH0 SWAP1 POP JUMPDEST PUSH1 0x2 DUP1 SLOAD SWAP1 POP DUP2 LT ISZERO PUSH2 0x205 JUMPI DUP2 PUSH1 0x2 ADD PUSH1 0x2 DUP3 DUP2 SLOAD DUP2 LT PUSH2 0xE8 JUMPI PUSH2 0xE7 PUSH2 0x3EE JUMP JUMPDEST JUMPDEST SWAP1 PUSH0 MSTORE PUSH1 0x20 PUSH0 KECCAK256 SWAP1 PUSH1 0x4 MUL ADD SWAP1 DUP1 PUSH1 0x1 DUP2 SLOAD ADD DUP1 DUP3 SSTORE DUP1 SWAP2 POP POP PUSH1 0x1 SWAP1 SUB SWAP1 PUSH0 MSTORE PUSH1 0x20 PUSH0 KECCAK256 SWAP1 PUSH1 0x4 MUL ADD PUSH0 SWAP1 SWAP2 SWAP1 SWAP2 SWAP1 SWAP2 POP PUSH0 DUP3 ADD PUSH0 SWAP1 SLOAD SWAP1 PUSH2 0x100 EXP SWAP1 DIV PUSH20 0xFFFFFFFFFFFFFFFFFFFFFFFFFFFFFFFFFFFFFFFF AND DUP2 PUSH0 ADD PUSH0 PUSH2 0x100 EXP DUP2 SLOAD DUP2 PUSH20 0xFFFFFFFFFFFFFFFFFFFFFFFFFFFFFFFFFFFFFFFF MUL NOT AND SWAP1 DUP4 PUSH20 0xFFFFFFFFFFFFFFFFFFFFFFFFFFFFFFFFFFFFFFFF AND MUL OR SWAP1 SSTORE POP PUSH1 0x1 DUP3 ADD PUSH0 SWAP1 SLOAD SWAP1 PUSH2 0x100 EXP SWAP1 DIV PUSH20 0xFFFFFFFFFFFFFFFFFFFFFFFFFFFFFFFFFFFFFFFF AND DUP2 PUSH1 0x1 ADD PUSH0 PUSH2 0x100 EXP DUP2 SLOAD DUP2 PUSH20 0xFFFFFFFFFFFFFFFFFFFFFFFFFFFFFFFFFFFFFFFF MUL NOT AND SWAP1 DUP4 PUSH20 0xFFFFFFFFFFFFFFFFFFFFFFFFFFFFFFFFFFFFFFFF AND MUL OR SWAP1 SSTORE POP PUSH1 0x2 DUP3 ADD SLOAD DUP2 PUSH1 0x2 ADD SSTORE PUSH1 0x3 DUP3 ADD SLOAD DUP2 PUSH1 0x3 ADD SSTORE POP POP DUP1 DUP1 PUSH1 0x1 ADD SWAP2 POP POP PUSH2 0xC3 JUMP JUMPDEST POP PUSH1 0x2 PUSH0 PUSH2 0x213 SWAP2 SWAP1 PUSH2 0x25E JUMP JUMPDEST DUP5 PUSH1 0x1 DUP2 SWAP1 SSTORE POP PUSH32 0x50523C6E97461CEACCC44540AB96E0C97BE70813576164DE6985B781DBBAC19 DUP6 DUP4 PUSH1 0x40 MLOAD PUSH2 0x24B SWAP3 SWAP2 SWAP1 PUSH2 0x439 JUMP JUMPDEST PUSH1 0x40 MLOAD DUP1 SWAP2 SUB SWAP1 LOG1 DUP5 SWAP6 POP POP POP POP POP POP SWAP1 JUMP JUMPDEST POP DUP1 SLOAD PUSH0 DUP3 SSTORE PUSH1 0x4 MUL SWAP1 PUSH0 MSTORE PUSH1 0x20 PUSH0 KECCAK256 SWAP1 DUP2 ADD SWAP1 PUSH2 0x27C SWAP2 SWAP1 PUSH2 0x27F JUMP JUMPDEST POP JUMP JUMPDEST JUMPDEST DUP1 DUP3 GT ISZERO PUSH2 0x2EB JUMPI PUSH0 PUSH0 DUP3 ADD PUSH0 PUSH2 0x100 EXP DUP2 SLOAD SWAP1 PUSH20 0xFFFFFFFFFFFFFFFFFFFFFFFFFFFFFFFFFFFFFFFF MUL NOT AND SWAP1 SSTORE PUSH1 0x1 DUP3 ADD PUSH0 PUSH2 0x100 EXP DUP2 SLOAD SWAP1 PUSH20 0xFFFFFFFFFFFFFFFFFFFFFFFFFFFFFFFFFFFFFFFF MUL NOT AND SWAP1 SSTORE PUSH1 0x2 DUP3 ADD PUSH0 SWAP1 SSTORE PUSH1 0x3 DUP3 ADD PUSH0 SWAP1 SSTORE POP PUSH1 0x4 ADD PUSH2 0x280 JUMP JUMPDEST POP SWAP1 JUMP JUMPDEST PUSH0 DUP2 SWAP1 POP SWAP2 SWAP1 POP JUMP JUMPDEST PUSH32 0x4E487B7100000000000000000000000000000000000000000000000000000000 PUSH0 MSTORE PUSH1 0x11 PUSH1 0x4 MSTORE PUSH1 0x24 PUSH0 REVERT JUMPDEST PUSH0 PUSH2 0x32F DUP3 PUSH2 0x2EF JUMP JUMPDEST SWAP2 POP PUSH2 0x33A DUP4 PUSH2 0x2EF JUMP JUMPDEST SWAP3 POP DUP3 DUP3 ADD SWAP1 POP DUP1 DUP3 GT ISZERO PUSH2 0x352 JUMPI PUSH2 0x351 PUSH2 0x2F8 JUMP JUMPDEST JUMPDEST SWAP3 SWAP2 POP POP JUMP JUMPDEST PUSH0 DUP2 SWAP1 POP SWAP2 SWAP1 POP JUMP JUMPDEST PUSH2 0x372 PUSH2 0x36D DUP3 PUSH2 0x2EF JUMP JUMPDEST PUSH2 0x358 JUMP JUMPDEST DUP3 MSTORE POP POP JUMP JUMPDEST PUSH0 DUP2 SWAP1 POP SWAP2 SWAP1 POP JUMP JUMPDEST PUSH0 DUP2 SWAP1 POP SWAP2 SWAP1 POP JUMP JUMPDEST PUSH2 0x39B PUSH2 0x396 DUP3 PUSH2 0x378 JUMP JUMPDEST PUSH2 0x381 JUMP JUMPDEST DUP3 MSTORE POP POP JUMP JUMPDEST PUSH0 PUSH2 0x3AC DUP3 DUP8 PUSH2 0x361 JUMP JUMPDEST PUSH1 0x20 DUP3 ADD SWAP2 POP PUSH2 0x3BC DUP3 DUP7 PUSH2 0x361 JUMP JUMPDEST PUSH1 0x20 DUP3 ADD SWAP2 POP PUSH2 0x3CC DUP3 DUP6 PUSH2 0x38A JUMP JUMPDEST PUSH1 0x20 DUP3 ADD SWAP2 POP PUSH2 0x3DC DUP3 DUP5 PUSH2 0x361 JUMP JUMPDEST PUSH1 0x20 DUP3 ADD SWAP2 POP DUP2 SWAP1 POP SWAP6 SWAP5 POP POP POP POP POP JUMP JUMPDEST PUSH32 0x4E487B7100000000000000000000000000000000000000000000000000000000 PUSH0 MSTORE PUSH1 0x32 PUSH1 0x4 MSTORE PUSH1 0x24 PUSH0 REVERT JUMPDEST PUSH2 0x424 DUP2 PUSH2 0x2EF JUMP JUMPDEST DUP3 MSTORE POP POP JUMP JUMPDEST PUSH2 0x433 DUP2 PUSH2 0x378 JUMP JUMPDEST DUP3 MSTORE POP POP JUMP JUMPDEST PUSH0 PUSH1 0x40 DUP3 ADD SWAP1 POP PUSH2 0x44C PUSH0 DUP4 ADD DUP6 PUSH2 0x41B JUMP JUMPDEST PUSH2 0x459 PUSH1 0x20 DUP4 ADD DUP5 PUSH2 0x42A JUMP JUMPDEST SWAP4 SWAP3 POP POP POP JUMP JUMPDEST PUSH2 0xC5D DUP1 PUSH2 0x46D PUSH0 CODECOPY PUSH0 RETURN INVALID PUSH1 0x80 PUSH1 0x40 MSTORE CALLVALUE DUP1 ISZERO PUSH2 0xF JUMPI PUSH0 PUSH0 REVERT JUMPDEST POP PUSH1 0x4 CALLDATASIZE LT PUSH2 0x86 JUMPI PUSH0 CALLDATALOAD PUSH1 0xE0 SHR DUP1 PUSH4 0x78A1FF8F GT PUSH2 0x59 JUMPI DUP1 PUSH4 0x78A1FF8F EQ PUSH2 0x12D JUMPI DUP1 PUSH4 0x84A37273 EQ PUSH2 0x14B JUMPI DUP1 PUSH4 0xDE2A62A5 EQ PUSH2 0x167 JUMPI DUP1 PUSH4 0xF25B3F99 EQ PUSH2 0x19A JUMPI PUSH2 0x86 JUMP JUMPDEST DUP1 PUSH4 0x4C07569 EQ PUSH2 0x8A JUMPI DUP1 PUSH4 0x219EE89C EQ PUSH2 0xBE JUMPI DUP1 PUSH4 0x578F2AA0 EQ PUSH2 0xDC JUMPI DUP1 PUSH4 0x7303F6CE EQ PUSH2 0xFA JUMPI JUMPDEST PUSH0 PUSH0 REVERT JUMPDEST PUSH2 0xA4 PUSH1 0x4 DUP1 CALLDATASIZE SUB DUP2 ADD SWAP1 PUSH2 0x9F SWAP2 SWAP1 PUSH2 0x812 JUMP JUMPDEST PUSH2 0x1CD JUMP JUMPDEST PUSH1 0x40 MLOAD PUSH2 0xB5 SWAP6 SWAP5 SWAP4 SWAP3 SWAP2 SWAP1 PUSH2 0x864 JUMP JUMPDEST PUSH1 0x40 MLOAD DUP1 SWAP2 SUB SWAP1 RETURN JUMPDEST PUSH2 0xC6 PUSH2 0x214 JUMP JUMPDEST PUSH1 0x40 MLOAD PUSH2 0xD3 SWAP2 SWAP1 PUSH2 0x8B5 JUMP JUMPDEST PUSH1 0x40 MLOAD DUP1 SWAP2 SUB SWAP1 RETURN JUMPDEST PUSH2 0xE4 PUSH2 0x21D JUMP JUMPDEST PUSH1 0x40 MLOAD PUSH2 0xF1 SWAP2 SWAP1 PUSH2 0x8B5 JUMP JUMPDEST PUSH1 0x40 MLOAD DUP1 SWAP2 SUB SWAP1 RETURN JUMPDEST PUSH2 0x114 PUSH1 0x4 DUP1 CALLDATASIZE SUB DUP2 ADD SWAP1 PUSH2 0x10F SWAP2 SWAP1 PUSH2 0x8CE JUMP JUMPDEST PUSH2 0x223 JUMP JUMPDEST PUSH1 0x40 MLOAD PUSH2 0x124 SWAP5 SWAP4 SWAP3 SWAP2 SWAP1 PUSH2 0x94B JUMP JUMPDEST PUSH1 0x40 MLOAD DUP1 SWAP2 SUB SWAP1 RETURN JUMPDEST PUSH2 0x135 PUSH2 0x2BE JUMP JUMPDEST PUSH1 0x40 MLOAD PUSH2 0x142 SWAP2 SWAP1 PUSH2 0x8B5 JUMP JUMPDEST PUSH1 0x40 MLOAD DUP1 SWAP2 SUB SWAP1 RETURN JUMPDEST PUSH2 0x165 PUSH1 0x4 DUP1 CALLDATASIZE SUB DUP2 ADD SWAP1 PUSH2 0x160 SWAP2 SWAP1 PUSH2 0x9B8 JUMP JUMPDEST PUSH2 0x313 JUMP JUMPDEST STOP JUMPDEST PUSH2 0x181 PUSH1 0x4 DUP1 CALLDATASIZE SUB DUP2 ADD SWAP1 PUSH2 0x17C SWAP2 SWAP1 PUSH2 0x812 JUMP JUMPDEST PUSH2 0x46C JUMP JUMPDEST PUSH1 0x40 MLOAD PUSH2 0x191 SWAP5 SWAP4 SWAP3 SWAP2 SWAP1 PUSH2 0x94B JUMP JUMPDEST PUSH1 0x40 MLOAD DUP1 SWAP2 SUB SWAP1 RETURN JUMPDEST PUSH2 0x1B4 PUSH1 0x4 DUP1 CALLDATASIZE SUB DUP2 ADD SWAP1 PUSH2 0x1AF SWAP2 SWAP1 PUSH2 0x812 JUMP JUMPDEST PUSH2 0x4E5 JUMP JUMPDEST PUSH1 0x40 MLOAD PUSH2 0x1C4 SWAP5 SWAP4 SWAP3 SWAP2 SWAP1 PUSH2 0x9F6 JUMP JUMPDEST PUSH1 0x40 MLOAD DUP1 SWAP2 SUB SWAP1 RETURN JUMPDEST PUSH0 PUSH0 PUSH0 PUSH0 PUSH0 PUSH0 PUSH0 PUSH0 DUP9 DUP2 MSTORE PUSH1 0x20 ADD SWAP1 DUP2 MSTORE PUSH1 0x20 ADD PUSH0 KECCAK256 SWAP1 POP DUP1 PUSH0 ADD SLOAD DUP2 PUSH1 0x1 ADD SLOAD DUP3 PUSH1 0x3 ADD SLOAD DUP4 PUSH1 0x4 ADD SLOAD DUP5 PUSH1 0x2 ADD DUP1 SLOAD SWAP1 POP SWAP6 POP SWAP6 POP SWAP6 POP SWAP6 POP SWAP6 POP POP SWAP2 SWAP4 SWAP6 SWAP1 SWAP3 SWAP5 POP JUMP JUMPDEST PUSH0 PUSH1 0x1 SLOAD SWAP1 POP SWAP1 JUMP JUMPDEST PUSH1 0x1 SLOAD DUP2 JUMP JUMPDEST PUSH0 PUSH0 PUSH0 PUSH0 PUSH0 PUSH0 PUSH0 DUP9 DUP2 MSTORE PUSH1 0x20 ADD SWAP1 DUP2 MSTORE PUSH1 0x20 ADD PUSH0 KECCAK256 PUSH1 0x2 ADD DUP7 DUP2 SLOAD DUP2 LT PUSH2 0x24D JUMPI PUSH2 0x24C PUSH2 0xA39 JUMP JUMPDEST JUMPDEST SWAP1 PUSH0 MSTORE PUSH1 0x20 PUSH0 KECCAK256 SWAP1 PUSH1 0x4 MUL ADD SWAP1 POP DUP1 PUSH0 ADD PUSH0 SWAP1 SLOAD SWAP1 PUSH2 0x100 EXP SWAP1 DIV PUSH20 0xFFFFFFFFFFFFFFFFFFFFFFFFFFFFFFFFFFFFFFFF AND DUP2 PUSH1 0x1 ADD PUSH0 SWAP1 SLOAD SWAP1 PUSH2 0x100 EXP SWAP1 DIV PUSH20 0xFFFFFFFFFFFFFFFFFFFFFFFFFFFFFFFFFFFFFFFF AND DUP3 PUSH1 0x2 ADD SLOAD DUP4 PUSH1 0x3 ADD SLOAD SWAP5 POP SWAP5 POP SWAP5 POP SWAP5 POP POP SWAP3 SWAP6 SWAP2 SWAP5 POP SWAP3 POP JUMP JUMPDEST PUSH0 PUSH0 PUSH1 0x2 DUP1 SLOAD SWAP1 POP GT PUSH2 0x306 JUMPI PUSH1 0x40 MLOAD PUSH32 0x8C379A000000000000000000000000000000000000000000000000000000000 DUP2 MSTORE PUSH1 0x4 ADD PUSH2 0x2FD SWAP1 PUSH2 0xAC0 JUMP JUMPDEST PUSH1 0x40 MLOAD DUP1 SWAP2 SUB SWAP1 REVERT JUMPDEST PUSH2 0x30E PUSH2 0x510 JUMP JUMPDEST SWAP1 POP SWAP1 JUMP JUMPDEST PUSH0 PUSH1 0x40 MLOAD DUP1 PUSH1 0x80 ADD PUSH1 0x40 MSTORE DUP1 CALLER PUSH20 0xFFFFFFFFFFFFFFFFFFFFFFFFFFFFFFFFFFFFFFFF AND DUP2 MSTORE PUSH1 0x20 ADD DUP5 PUSH20 0xFFFFFFFFFFFFFFFFFFFFFFFFFFFFFFFFFFFFFFFF AND DUP2 MSTORE PUSH1 0x20 ADD DUP4 DUP2 MSTORE PUSH1 0x20 ADD TIMESTAMP DUP2 MSTORE POP SWAP1 POP PUSH1 0x2 DUP2 SWAP1 DUP1 PUSH1 0x1 DUP2 SLOAD ADD DUP1 DUP3 SSTORE DUP1 SWAP2 POP POP PUSH1 0x1 SWAP1 SUB SWAP1 PUSH0 MSTORE PUSH1 0x20 PUSH0 KECCAK256 SWAP1 PUSH1 0x4 MUL ADD PUSH0 SWAP1 SWAP2 SWAP1 SWAP2 SWAP1 SWAP2 POP PUSH0 DUP3 ADD MLOAD DUP2 PUSH0 ADD PUSH0 PUSH2 0x100 EXP DUP2 SLOAD DUP2 PUSH20 0xFFFFFFFFFFFFFFFFFFFFFFFFFFFFFFFFFFFFFFFF MUL NOT AND SWAP1 DUP4 PUSH20 0xFFFFFFFFFFFFFFFFFFFFFFFFFFFFFFFFFFFFFFFF AND MUL OR SWAP1 SSTORE POP PUSH1 0x20 DUP3 ADD MLOAD DUP2 PUSH1 0x1 ADD PUSH0 PUSH2 0x100 EXP DUP2 SLOAD DUP2 PUSH20 0xFFFFFFFFFFFFFFFFFFFFFFFFFFFFFFFFFFFFFFFF MUL NOT AND SWAP1 DUP4 PUSH20 0xFFFFFFFFFFFFFFFFFFFFFFFFFFFFFFFFFFFFFFFF AND MUL OR SWAP1 SSTORE POP PUSH1 0x40 DUP3 ADD MLOAD DUP2 PUSH1 0x2 ADD SSTORE PUSH1 0x60 DUP3 ADD MLOAD DUP2 PUSH1 0x3 ADD SSTORE POP POP PUSH32 0xA3F77C7251C1C7E67C7F892AFA5CA0A98096C9119E947663F4A96852C743F430 CALLER DUP5 DUP5 PUSH1 0x40 MLOAD PUSH2 0x45F SWAP4 SWAP3 SWAP2 SWAP1 PUSH2 0xADE JUMP JUMPDEST PUSH1 0x40 MLOAD DUP1 SWAP2 SUB SWAP1 LOG1 POP POP POP JUMP JUMPDEST PUSH1 0x2 DUP2 DUP2 SLOAD DUP2 LT PUSH2 0x47B JUMPI PUSH0 DUP1 REVERT JUMPDEST SWAP1 PUSH0 MSTORE PUSH1 0x20 PUSH0 KECCAK256 SWAP1 PUSH1 0x4 MUL ADD PUSH0 SWAP2 POP SWAP1 POP DUP1 PUSH0 ADD PUSH0 SWAP1 SLOAD SWAP1 PUSH2 0x100 EXP SWAP1 DIV PUSH20 0xFFFFFFFFFFFFFFFFFFFFFFFFFFFFFFFFFFFFFFFF AND SWAP1 DUP1 PUSH1 0x1 ADD PUSH0 SWAP1 SLOAD SWAP1 PUSH2 0x100 EXP SWAP1 DIV PUSH20 0xFFFFFFFFFFFFFFFFFFFFFFFFFFFFFFFFFFFFFFFF AND SWAP1 DUP1 PUSH1 0x2 ADD SLOAD SWAP1 DUP1 PUSH1 0x3 ADD SLOAD SWAP1 POP DUP5 JUMP JUMPDEST PUSH0 PUSH1 0x20 MSTORE DUP1 PUSH0 MSTORE PUSH1 0x40 PUSH0 KECCAK256 PUSH0 SWAP2 POP SWAP1 POP DUP1 PUSH0 ADD SLOAD SWAP1 DUP1 PUSH1 0x1 ADD SLOAD SWAP1 DUP1 PUSH1 0x3 ADD SLOAD SWAP1 DUP1 PUSH1 0x4 ADD SLOAD SWAP1 POP DUP5 JUMP JUMPDEST PUSH0 PUSH0 PUSH1 0x1 DUP1 SLOAD PUSH2 0x520 SWAP2 SWAP1 PUSH2 0xB40 JUMP JUMPDEST SWAP1 POP PUSH0 TIMESTAMP SWAP1 POP PUSH0 PUSH0 PUSH0 PUSH1 0x1 SLOAD DUP2 MSTORE PUSH1 0x20 ADD SWAP1 DUP2 MSTORE PUSH1 0x20 ADD PUSH0 KECCAK256 PUSH1 0x4 ADD SLOAD SWAP1 POP PUSH0 DUP4 DUP4 DUP4 PUSH1 0x2 DUP1 SLOAD SWAP1 POP PUSH1 0x40 MLOAD PUSH1 0x20 ADD PUSH2 0x55C SWAP5 SWAP4 SWAP3 SWAP2 SWAP1 PUSH2 0xBB3 JUMP JUMPDEST PUSH1 0x40 MLOAD PUSH1 0x20 DUP2 DUP4 SUB SUB DUP2 MSTORE SWAP1 PUSH1 0x40 MSTORE DUP1 MLOAD SWAP1 PUSH1 0x20 ADD KECCAK256 SWAP1 POP PUSH0 PUSH0 PUSH0 DUP7 DUP2 MSTORE PUSH1 0x20 ADD SWAP1 DUP2 MSTORE PUSH1 0x20 ADD PUSH0 KECCAK256 SWAP1 POP DUP5 DUP2 PUSH0 ADD DUP2 SWAP1 SSTORE POP DUP4 DUP2 PUSH1 0x1 ADD DUP2 SWAP1 SSTORE POP DUP3 DUP2 PUSH1 0x3 ADD DUP2 SWAP1 SSTORE POP DUP2 DUP2 PUSH1 0x4 ADD DUP2 SWAP1 SSTORE POP PUSH0 PUSH0 SWAP1 POP JUMPDEST PUSH1 0x2 DUP1 SLOAD SWAP1 POP DUP2 LT ISZERO PUSH2 0x6F1 JUMPI DUP2 PUSH1 0x2 ADD PUSH1 0x2 DUP3 DUP2 SLOAD DUP2 LT PUSH2 0x5D4 JUMPI PUSH2 0x5D3 PUSH2 0xA39 JUMP JUMPDEST JUMPDEST SWAP1 PUSH0 MSTORE PUSH1 0x20 PUSH0 KECCAK256 SWAP1 PUSH1 0x4 MUL ADD SWAP1 DUP1 PUSH1 0x1 DUP2 SLOAD ADD DUP1 DUP3 SSTORE DUP1 SWAP2 POP POP PUSH1 0x1 SWAP1 SUB SWAP1 PUSH0 MSTORE PUSH1 0x20 PUSH0 KECCAK256 SWAP1 PUSH1 0x4 MUL ADD PUSH0 SWAP1 SWAP2 SWAP1 SWAP2 SWAP1 SWAP2 POP PUSH0 DUP3 ADD PUSH0 SWAP1 SLOAD SWAP1 PUSH2 0x100 EXP SWAP1 DIV PUSH20 0xFFFFFFFFFFFFFFFFFFFFFFFFFFFFFFFFFFFFFFFF AND DUP2 PUSH0 ADD PUSH0 PUSH2 0x100 EXP DUP2 SLOAD DUP2 PUSH20 0xFFFFFFFFFFFFFFFFFFFFFFFFFFFFFFFFFFFFFFFF MUL NOT AND SWAP1 DUP4 PUSH20 0xFFFFFFFFFFFFFFFFFFFFFFFFFFFFFFFFFFFFFFFF AND MUL OR SWAP1 SSTORE POP PUSH1 0x1 DUP3 ADD PUSH0 SWAP1 SLOAD SWAP1 PUSH2 0x100 EXP SWAP1 DIV PUSH20 0xFFFFFFFFFFFFFFFFFFFFFFFFFFFFFFFFFFFFFFFF AND DUP2 PUSH1 0x1 ADD PUSH0 PUSH2 0x100 EXP DUP2 SLOAD DUP2 PUSH20 0xFFFFFFFFFFFFFFFFFFFFFFFFFFFFFFFFFFFFFFFF MUL NOT AND SWAP1 DUP4 PUSH20 0xFFFFFFFFFFFFFFFFFFFFFFFFFFFFFFFFFFFFFFFF AND MUL OR SWAP1 SSTORE POP PUSH1 0x2 DUP3 ADD SLOAD DUP2 PUSH1 0x2 ADD SSTORE PUSH1 0x3 DUP3 ADD SLOAD DUP2 PUSH1 0x3 ADD SSTORE POP POP DUP1 DUP1 PUSH1 0x1 ADD SWAP2 POP POP PUSH2 0x5AF JUMP JUMPDEST POP PUSH1 0x2 PUSH0 PUSH2 0x6FF SWAP2 SWAP1 PUSH2 0x74A JUMP JUMPDEST DUP5 PUSH1 0x1 DUP2 SWAP1 SSTORE POP PUSH32 0x50523C6E97461CEACCC44540AB96E0C97BE70813576164DE6985B781DBBAC19 DUP6 DUP4 PUSH1 0x40 MLOAD PUSH2 0x737 SWAP3 SWAP2 SWAP1 PUSH2 0xC00 JUMP JUMPDEST PUSH1 0x40 MLOAD DUP1 SWAP2 SUB SWAP1 LOG1 DUP5 SWAP6 POP POP POP POP POP POP SWAP1 JUMP JUMPDEST POP DUP1 SLOAD PUSH0 DUP3 SSTORE PUSH1 0x4 MUL SWAP1 PUSH0 MSTORE PUSH1 0x20 PUSH0 KECCAK256 SWAP1 DUP2 ADD SWAP1 PUSH2 0x768 SWAP2 SWAP1 PUSH2 0x76B JUMP JUMPDEST POP JUMP JUMPDEST JUMPDEST DUP1 DUP3 GT ISZERO PUSH2 0x7D7 JUMPI PUSH0 PUSH0 DUP3 ADD PUSH0 PUSH2 0x100 EXP DUP2 SLOAD SWAP1 PUSH20 0xFFFFFFFFFFFFFFFFFFFFFFFFFFFFFFFFFFFFFFFF MUL NOT AND SWAP1 SSTORE PUSH1 0x1 DUP3 ADD PUSH0 PUSH2 0x100 EXP DUP2 SLOAD SWAP1 PUSH20 0xFFFFFFFFFFFFFFFFFFFFFFFFFFFFFFFFFFFFFFFF MUL NOT AND SWAP1 SSTORE PUSH1 0x2 DUP3 ADD PUSH0 SWAP1 SSTORE PUSH1 0x3 DUP3 ADD PUSH0 SWAP1 SSTORE POP PUSH1 0x4 ADD PUSH2 0x76C JUMP JUMPDEST POP SWAP1 JUMP JUMPDEST PUSH0 PUSH0 REVERT JUMPDEST PUSH0 DUP2 SWAP1 POP SWAP2 SWAP1 POP JUMP JUMPDEST PUSH2 0x7F1 DUP2 PUSH2 0x7DF JUMP JUMPDEST DUP2 EQ PUSH2 0x7FB JUMPI PUSH0 PUSH0 REVERT JUMPDEST POP JUMP JUMPDEST PUSH0 DUP2 CALLDATALOAD SWAP1 POP PUSH2 0x80C DUP2 PUSH2 0x7E8 JUMP JUMPDEST SWAP3 SWAP2 POP POP JUMP JUMPDEST PUSH0 PUSH1 0x20 DUP3 DUP5 SUB SLT ISZERO PUSH2 0x827 JUMPI PUSH2 0x826 PUSH2 0x7DB JUMP JUMPDEST JUMPDEST PUSH0 PUSH2 0x834 DUP5 DUP3 DUP6 ADD PUSH2 0x7FE JUMP JUMPDEST SWAP2 POP POP SWAP3 SWAP2 POP POP JUMP JUMPDEST PUSH2 0x846 DUP2 PUSH2 0x7DF JUMP JUMPDEST DUP3 MSTORE POP POP JUMP JUMPDEST PUSH0 DUP2 SWAP1 POP SWAP2 SWAP1 POP JUMP JUMPDEST PUSH2 0x85E DUP2 PUSH2 0x84C JUMP JUMPDEST DUP3 MSTORE POP POP JUMP JUMPDEST PUSH0 PUSH1 0xA0 DUP3 ADD SWAP1 POP PUSH2 0x877 PUSH0 DUP4 ADD DUP9 PUSH2 0x83D JUMP JUMPDEST PUSH2 0x884 PUSH1 0x20 DUP4 ADD DUP8 PUSH2 0x83D JUMP JUMPDEST PUSH2 0x891 PUSH1 0x40 DUP4 ADD DUP7 PUSH2 0x855 JUMP JUMPDEST PUSH2 0x89E PUSH1 0x60 DUP4 ADD DUP6 PUSH2 0x855 JUMP JUMPDEST PUSH2 0x8AB PUSH1 0x80 DUP4 ADD DUP5 PUSH2 0x83D JUMP JUMPDEST SWAP7 SWAP6 POP POP POP POP POP POP JUMP JUMPDEST PUSH0 PUSH1 0x20 DUP3 ADD SWAP1 POP PUSH2 0x8C8 PUSH0 DUP4 ADD DUP5 PUSH2 0x83D JUMP JUMPDEST SWAP3 SWAP2 POP POP JUMP JUMPDEST PUSH0 PUSH0 PUSH1 0x40 DUP4 DUP6 SUB SLT ISZERO PUSH2 0x8E4 JUMPI PUSH2 0x8E3 PUSH2 0x7DB JUMP JUMPDEST JUMPDEST PUSH0 PUSH2 0x8F1 DUP6 DUP3 DUP7 ADD PUSH2 0x7FE JUMP JUMPDEST SWAP3 POP POP PUSH1 0x20 PUSH2 0x902 DUP6 DUP3 DUP7 ADD PUSH2 0x7FE JUMP JUMPDEST SWAP2 POP POP SWAP3 POP SWAP3 SWAP1 POP JUMP JUMPDEST PUSH0 PUSH20 0xFFFFFFFFFFFFFFFFFFFFFFFFFFFFFFFFFFFFFFFF DUP3 AND SWAP1 POP SWAP2 SWAP1 POP JUMP JUMPDEST PUSH0 PUSH2 0x935 DUP3 PUSH2 0x90C JUMP JUMPDEST SWAP1 POP SWAP2 SWAP1 POP JUMP JUMPDEST PUSH2 0x945 DUP2 PUSH2 0x92B JUMP JUMPDEST DUP3 MSTORE POP POP JUMP JUMPDEST PUSH0 PUSH1 0x80 DUP3 ADD SWAP1 POP PUSH2 0x95E PUSH0 DUP4 ADD DUP8 PUSH2 0x93C JUMP JUMPDEST PUSH2 0x96B PUSH1 0x20 DUP4 ADD DUP7 PUSH2 0x93C JUMP JUMPDEST PUSH2 0x978 PUSH1 0x40 DUP4 ADD DUP6 PUSH2 0x83D JUMP JUMPDEST PUSH2 0x985 PUSH1 0x60 DUP4 ADD DUP5 PUSH2 0x83D JUMP JUMPDEST SWAP6 SWAP5 POP POP POP POP POP JUMP JUMPDEST PUSH2 0x997 DUP2 PUSH2 0x92B JUMP JUMPDEST DUP2 EQ PUSH2 0x9A1 JUMPI PUSH0 PUSH0 REVERT JUMPDEST POP JUMP JUMPDEST PUSH0 DUP2 CALLDATALOAD SWAP1 POP PUSH2 0x9B2 DUP2 PUSH2 0x98E JUMP JUMPDEST SWAP3 SWAP2 POP POP JUMP JUMPDEST PUSH0 PUSH0 PUSH1 0x40 DUP4 DUP6 SUB SLT ISZERO PUSH2 0x9CE JUMPI PUSH2 0x9CD PUSH2 0x7DB JUMP JUMPDEST JUMPDEST PUSH0 PUSH2 0x9DB DUP6 DUP3 DUP7 ADD PUSH2 0x9A4 JUMP JUMPDEST SWAP3 POP POP PUSH1 0x20 PUSH2 0x9EC DUP6 DUP3 DUP7 ADD PUSH2 0x7FE JUMP JUMPDEST SWAP2 POP POP SWAP3 POP SWAP3 SWAP1 POP JUMP JUMPDEST PUSH0 PUSH1 0x80 DUP3 ADD SWAP1 POP PUSH2 0xA09 PUSH0 DUP4 ADD DUP8 PUSH2 0x83D JUMP JUMPDEST PUSH2 0xA16 PUSH1 0x20 DUP4 ADD DUP7 PUSH2 0x83D JUMP JUMPDEST PUSH2 0xA23 PUSH1 0x40 DUP4 ADD DUP6 PUSH2 0x855 JUMP JUMPDEST PUSH2 0xA30 PUSH1 0x60 DUP4 ADD DUP5 PUSH2 0x855 JUMP JUMPDEST SWAP6 SWAP5 POP POP POP POP POP JUMP JUMPDEST PUSH32 0x4E487B7100000000000000000000000000000000000000000000000000000000 PUSH0 MSTORE PUSH1 0x32 PUSH1 0x4 MSTORE PUSH1 0x24 PUSH0 REVERT JUMPDEST PUSH0 DUP3 DUP3 MSTORE PUSH1 0x20 DUP3 ADD SWAP1 POP SWAP3 SWAP2 POP POP JUMP JUMPDEST PUSH32 0x4E6F2070656E64696E67207472616E73616374696F6E73000000000000000000 PUSH0 DUP3 ADD MSTORE POP JUMP JUMPDEST PUSH0 PUSH2 0xAAA PUSH1 0x17 DUP4 PUSH2 0xA66 JUMP JUMPDEST SWAP2 POP PUSH2 0xAB5 DUP3 PUSH2 0xA76 JUMP JUMPDEST PUSH1 0x20 DUP3 ADD SWAP1 POP SWAP2 SWAP1 POP JUMP JUMPDEST PUSH0 PUSH1 0x20 DUP3 ADD SWAP1 POP DUP2 DUP2 SUB PUSH0 DUP4 ADD MSTORE PUSH2 0xAD7 DUP2 PUSH2 0xA9E JUMP JUMPDEST SWAP1 POP SWAP2 SWAP1 POP JUMP JUMPDEST PUSH0 PUSH1 0x60 DUP3 ADD SWAP1 POP PUSH2 0xAF1 PUSH0 DUP4 ADD DUP7 PUSH2 0x93C JUMP JUMPDEST PUSH2 0xAFE PUSH1 0x20 DUP4 ADD DUP6 PUSH2 0x93C JUMP JUMPDEST PUSH2 0xB0B PUSH1 0x40 DUP4 ADD DUP5 PUSH2 0x83D JUMP JUMPDEST SWAP5 SWAP4 POP POP POP POP JUMP JUMPDEST PUSH32 0x4E487B7100000000000000000000000000000000000000000000000000000000 PUSH0 MSTORE PUSH1 0x11 PUSH1 0x4 MSTORE PUSH1 0x24 PUSH0 REVERT JUMPDEST PUSH0 PUSH2 0xB4A DUP3 PUSH2 0x7DF JUMP JUMPDEST SWAP2 POP PUSH2 0xB55 DUP4 PUSH2 0x7DF JUMP JUMPDEST SWAP3 POP DUP3 DUP3 ADD SWAP1 POP DUP1 DUP3 GT ISZERO PUSH2 0xB6D JUMPI PUSH2 0xB6C PUSH2 0xB13 JUMP JUMPDEST JUMPDEST SWAP3 SWAP2 POP POP JUMP JUMPDEST PUSH0 DUP2 SWAP1 POP SWAP2 SWAP1 POP JUMP JUMPDEST PUSH2 0xB8D PUSH2 0xB88 DUP3 PUSH2 0x7DF JUMP JUMPDEST PUSH2 0xB73 JUMP JUMPDEST DUP3 MSTORE POP POP JUMP JUMPDEST PUSH0 DUP2 SWAP1 POP SWAP2 SWAP1 POP JUMP JUMPDEST PUSH2 0xBAD PUSH2 0xBA8 DUP3 PUSH2 0x84C JUMP JUMPDEST PUSH2 0xB93 JUMP JUMPDEST DUP3 MSTORE POP POP JUMP JUMPDEST PUSH0 PUSH2 0xBBE DUP3 DUP8 PUSH2 0xB7C JUMP JUMPDEST PUSH1 0x20 DUP3 ADD SWAP2 POP PUSH2 0xBCE DUP3 DUP7 PUSH2 0xB7C JUMP JUMPDEST PUSH1 0x20 DUP3 ADD SWAP2 POP PUSH2 0xBDE DUP3 DUP6 PUSH2 0xB9C JUMP JUMPDEST PUSH1 0x20 DUP3 ADD SWAP2 POP PUSH2 0xBEE DUP3 DUP5 PUSH2 0xB7C JUMP JUMPDEST PUSH1 0x20 DUP3 ADD SWAP2 POP DUP2 SWAP1 POP SWAP6 SWAP5 POP POP POP POP POP JUMP JUMPDEST PUSH0 PUSH1 0x40 DUP3 ADD SWAP1 POP PUSH2 0xC13 PUSH0 DUP4 ADD DUP6 PUSH2 0x83D JUMP JUMPDEST PUSH2 0xC20 PUSH1 0x20 DUP4 ADD DUP5 PUSH2 0x855 JUMP JUMPDEST SWAP4 SWAP3 POP POP POP JUMP INVALID LOG2 PUSH5 0x6970667358 0x22 SLT KECCAK256 PUSH8 0xA5B9D63AF05A8E5B CALL 0xCC CALLVALUE DIV 0xC6 PUSH25 0xB7048C71DC9131D9748E8D5851D13361F564736F6C63430008 0x1E STOP CALLER "
				},
				"gasEstimates": {
					"creation": {
						"codeDepositCost": "633000",
						"executionCost": "infinite",
						"totalCost": "infinite"
					},
					"external": {
						"addTransaction(address,uint256)": "infinite",
						"blocks(uint256)": "infinite",
						"chainLength()": "2455",
						"getBlock(uint256)": "infinite",
						"getTransaction(uint256,uint256)": "infinite",
						"latestIndex()": "2470",
						"mineBlock()": "infinite",
						"pendingTx(uint256)": "infinite"
					},
					"internal": {
						"_addBlock()": "infinite"
					}
				},
				"methodIdentifiers": {
					"addTransaction(address,uint256)": "84a37273",
					"blocks(uint256)": "f25b3f99",
					"chainLength()": "219ee89c",
					"getBlock(uint256)": "04c07569",
					"getTransaction(uint256,uint256)": "7303f6ce",
					"latestIndex()": "578f2aa0",
					"mineBlock()": "78a1ff8f",
					"pendingTx(uint256)": "de2a62a5"
				}
			},
			"storageLayout": {
				"storage": [
					{
						"astId": 28,
						"contract": "contracts/SimpleBlockchain.sol:SimpleBlockchain",
						"label": "blocks",
						"offset": 0,
						"slot": "0",
						"type": "t_mapping(t_uint256,t_struct(BlockStruct)23_storage)"
					},
					{
						"astId": 30,
						"contract": "contracts/SimpleBlockchain.sol:SimpleBlockchain",
						"label": "latestIndex",
						"offset": 0,
						"slot": "1",
						"type": "t_uint256"
					},
					{
						"astId": 34,
						"contract": "contracts/SimpleBlockchain.sol:SimpleBlockchain",
						"label": "pendingTx",
						"offset": 0,
						"slot": "2",
						"type": "t_array(t_struct(Transaction)10_storage)dyn_storage"
					}
				],
				"types": {
					"t_address": {
						"encoding": "inplace",
						"label": "address",
						"numberOfBytes": "20"
					},
					"t_array(t_struct(Transaction)10_storage)dyn_storage": {
						"base": "t_struct(Transaction)10_storage",
						"encoding": "dynamic_array",
						"label": "struct SimpleBlockchain.Transaction[]",
						"numberOfBytes": "32"
					},
					"t_bytes32": {
						"encoding": "inplace",
						"label": "bytes32",
						"numberOfBytes": "32"
					},
					"t_mapping(t_uint256,t_struct(BlockStruct)23_storage)": {
						"encoding": "mapping",
						"key": "t_uint256",
						"label": "mapping(uint256 => struct SimpleBlockchain.BlockStruct)",
						"numberOfBytes": "32",
						"value": "t_struct(BlockStruct)23_storage"
					},
					"t_struct(BlockStruct)23_storage": {
						"encoding": "inplace",
						"label": "struct SimpleBlockchain.BlockStruct",
						"members": [
							{
								"astId": 12,
								"contract": "contracts/SimpleBlockchain.sol:SimpleBlockchain",
								"label": "index",
								"offset": 0,
								"slot": "0",
								"type": "t_uint256"
							},
							{
								"astId": 14,
								"contract": "contracts/SimpleBlockchain.sol:SimpleBlockchain",
								"label": "timestamp",
								"offset": 0,
								"slot": "1",
								"type": "t_uint256"
							},
							{
								"astId": 18,
								"contract": "contracts/SimpleBlockchain.sol:SimpleBlockchain",
								"label": "transactions",
								"offset": 0,
								"slot": "2",
								"type": "t_array(t_struct(Transaction)10_storage)dyn_storage"
							},
							{
								"astId": 20,
								"contract": "contracts/SimpleBlockchain.sol:SimpleBlockchain",
								"label": "prevHash",
								"offset": 0,
								"slot": "3",
								"type": "t_bytes32"
							},
							{
								"astId": 22,
								"contract": "contracts/SimpleBlockchain.sol:SimpleBlockchain",
								"label": "hash",
								"offset": 0,
								"slot": "4",
								"type": "t_bytes32"
							}
						],
						"numberOfBytes": "160"
					},
					"t_struct(Transaction)10_storage": {
						"encoding": "inplace",
						"label": "struct SimpleBlockchain.Transaction",
						"members": [
							{
								"astId": 3,
								"contract": "contracts/SimpleBlockchain.sol:SimpleBlockchain",
								"label": "sender",
								"offset": 0,
								"slot": "0",
								"type": "t_address"
							},
							{
								"astId": 5,
								"contract": "contracts/SimpleBlockchain.sol:SimpleBlockchain",
								"label": "receiver",
								"offset": 0,
								"slot": "1",
								"type": "t_address"
							},
							{
								"astId": 7,
								"contract": "contracts/SimpleBlockchain.sol:SimpleBlockchain",
								"label": "amount",
								"offset": 0,
								"slot": "2",
								"type": "t_uint256"
							},
							{
								"astId": 9,
								"contract": "contracts/SimpleBlockchain.sol:SimpleBlockchain",
								"label": "timestamp",
								"offset": 0,
								"slot": "3",
								"type": "t_uint256"
							}
						],
						"numberOfBytes": "128"
					},
					"t_uint256": {
						"encoding": "inplace",
						"label": "uint256",
						"numberOfBytes": "32"
					}
				}
			},
			"userdoc": {
				"kind": "user",
				"methods": {},
				"version": 1
			}
		}
	}
}